:20000000E80D0010C10000009104000055040000000000000000000000000000000000002C
:20002000000000000000000000000000E30000000000000000000000E5000000CD04000027
:20004000E1020000E9000000E9000000E90000005904000095040000D1020000CD03000069
:20006000E9000000E900000061050000000000000000000000000000000000000000000048
:20008000000000000000000000000000000000000000000000000000000000000000000060
:2000A000000000000000000000000000000000000000000000000000000000000000000040
:2000C00072B60A480A49016000200A490A4A0860091D9142FBD30948804709480047FEE767
:2000E000FEE7FEE7FEE7FEE7FEE7000000F0004098BADCFED8000010E80D0010E104000059
:200100004D05000010B5202A04DB0846203AD040002110BD0B46D340D0402024A21A9140B4
:200120000843194610BD03460B439B0703D009E008C9121F08C0042AFAD203E00B780370B6
:20014000401C491C521EF9D27047D2B201E00270401C491EFBD270470022F6E710B51346B1
:200160000A4604461946FFF7F0FF204610BD30B504460020034600E05B1C934203D2E05C99
:20018000CD5C401BF8D030BD70B50446002903D000202022012310E0002801D00020C04329
:2001A000C046C0460DE02546D5408D4205D30D469540641B1D46954040191546521E002DEF
:2001C000F1DC214670BD0000F0B5ADB002930192039100F0C1FC00210398814272D20198F7
:2001E000049140180DAC214600F06CFB00212046059100F0F7F901250DAC204602F04AFE1F
:20020000204602F011FE0A2D4ED006950DA81DA9059A042A0AD00023102B03D0C458CC50FC
:200220001B1DF9E710311030521CF2E700200DA90C91042831D00790000123490A580B923B
:20024000081841680A9181680991C06808900F20C743002F1BD01DA8C41921690B981B4E6C
:20026000B0470546216A0A98B04706466E40216B0998164A904705467540216C0898134A30
:20028000904768400C99C91908613F1DE1E70C9810300C900798401CCBE70DA8069D2946D7
:2002A00000F0A0F96D1CA7E70DAC0A21204600F099F90298049D4119204600F0F3FA29468B
:2002C000103189E72DB0F0BDE4340000010300000248416802680A43026070472CC00040D8
:2002E00004488168044A054B13600160954810607047C0463400FF00F800FF0055AA55AA25
:20030000B0B50C46801E0C2837D8C0467844007940008744060C3232323232133218322E36
:200320002200600021060CD5C0B21B2424E06000210621D5C1B21B2048401DE0204600F078
:200340003FF8044619E06500200602D5E8B21B254540204600F034F808E06500200602D596
:20036000E8B21B254540204600F009F804466C4003E0204600F003F844402046B0BDB0B5E1
:20038000044600F012F80546204600F002F86840B0BD42001B21000601D5D2B24A405000B1
:2003A000120601D5C0B24840704780B5FFF7F1FF01464000090602D5C1B21B20484080BDA3
:2003C00010B50446FFF7F1FF604010BD70B5094D2C69094E344009480168002901D02046C6
:2003E000884728682968064A0A40304020438018286070BD10800040FF0100002806001045
:2004000000FEFFFFB0B504460F20C043104D00280FD02918702200238B5460228B545022F3
:200420008B5440228B5430228B5420228B54401CEDE72B461033102120462A46FFF7C4FEA7
:2004400029462031303520462A4600F045FCB0BDD800001000F0B8F810B50B483849816001
:200460000122130644681C434460364B83608160016811430160836004480168002901D09C
:200480000020884710BDC04610A00040E009001000F09AF8B0B50C4DE86D3A4C044012D070
:2004A000C00507D52868022188432860286804210143296034480168002901D020468847FF
:2004C000686D20436865B0BD0860004080B501F0A9FD02480168491C016080BDEC0800107C
:2004E000B0B500F037FA00242046214602F010FD02F0EAFC1148124981610121CD4301687D
:200500002940016001680222914301600D498161204602F02FFD0C484168294041607021FB
:20052000C94342680A40426002682A40026002680A40026002F060FDB0BDC04600A000402B
:200540005555AAAA7856341214C00040EFF3108072B600F06DFA62B601F0FCFCFCE70000A0
:20056000B0B5074DA868074C044008D006484168002901D020468847286820432860B0BD35
:200580005CB00040FFFF7F00E408001010B5C0B28207D20EFF239340054C00190324A0438D
:2005A00004689C438901C9B291402143016010BD00E400E0BFF34F8F084809490160BFF37F
:2005C0004F8F00BFFDE7C046BFF34F8F034804490160BFF34F8F00BFFDE7C0460CED00E0F9
:2005E0000400FA05FFB589000022104B042A1BD05418A4001C59E5B20395250E0095250A7A
:20060000EDB20295240CE4B2019400240546102C07D06E4636592F6877402F601035241D21
:20062000F5E7001D521CE1E7FFBDC04630090010F0B59BB0019317460E4607A903AA02905C
:2006400000F04AFB0F203A46024039460F310C0907D0002A06D1791E8143701807A90FAA7C
:200660000AE001242001801910380BAF394601F00DFD03A90FAA384602F028FF00201028E1
:2006800004D017A900220A54401CF8E7651E002D0FD017AF13AC38463146224602F016FF93
:2006A0001021029822463B46FFF78EFD10366D1EEDE717AC0FA913AE2046324602F006FF4F
:2006C0001021029832462346FFF77EFD0020019A102804D017A9095C1154401CF8E71BB0A6
:2006E000F0BD0000F8B50D46044600F0EFFC7E2824D000F0EBFC7F2820D0062D15D160782F
:20070000F32816D1A0783F2813D12079022810D1E078401E032811D87844007940008744C6
:20072000010E194AEC48012147E021780020132202E021780020312200F06AF9F8BDE648B8
:20074000817A0129FAD161790329F7D802228272C172F8BDE04FB87A0228EFD11F20C40284
:200760003D460B35022620462946324601F04AFD20462946324601F015FD02F067FD00F073
:20078000A5FC68280BD000F0A1FC6A2807D000F09DFC692803D000F099FC6B2808D1002455
:2007A0002046214601F036F80120214601F032F80320B872F8BDC84804218172F8BDC046C5
:2007C000FEB502460027029708460838182822D80D460124214681400F4801421BD0EE087B
:2007E00002A8009211463246FFF79DFC02983946002D0AD06D1E2246AA400346FB4023407B
:200800005B42134019437F1CF2E7019101A900983246FFF788FCFEBD010100010022082A40
:2008200007D08B5CC01883B2FF2B00D9FF38521CF5E7FF2181430846704780B501780020B2
:200840007F2200F0E5F880BD80B5C24A5278042A10D1032912D1427811468039042911D3E9
:20086000032A19D8817802230B43032B10D10178012014E0017800207F2210E0017800208E
:2008800013220CE0817802220A43032A00D180BD01780020312202E001780020122200F007
:2008A000B7F880BD10B50022042A0AD00023402B04D0C4580C701033491CF8E7001D521C51
:2008C000F2E710BDB0B500221346042B0AD00024402C04D0855C0D511034521CF8E7091D2F
:2008E0005B1CF2E7B0BDB0B500231A46102B04D08C5C855C531CA542F7D00F2A01D800202C
:20090000B0BD0120B0BD0000F8B515460E4604466F460E48388010213846FFF751FF3888BE
:2009200029040FD06D1E31784C400821002907D0012222405242024064085440491EF5E724
:20094000761CEDE70248A043F8BDC04621100000FFFF000010B50A48800881000A1F09497F
:200960008918094B9A180023DB439B00002805D00C681460D218C918401EF7E710BDC04635
:20098000D8000000103D000000000010B0B50446EFF3108072B60448056862B6284602F0A8
:2009A00081FBA042FAD3B0BDEC08001010B586B001AC617040302070A01C1946002905D009
:2009C00014780470521C401C491EF7E7BF480078991CCAB201A900F009FD06B010BDC0462F
:2009E00010B58AB040306B461870581C1346002B05D00C780470491C401C5B1EF7E7B34877
:200A00000078511CCAB2694600F0F0FC0AB010BD80B5012806D10023084611461A46FFF710
:200A2000C5FF80BDA948007800F008FC80BDC04680B50B4802F032FDA4481230FFF7E2FC6A
:200A400001F087FA00F022F8A2480649FFF784FB4B20020201200021034B01F047FB80BDFD
:200A6000102700003C040000D9100000E0B5014601AAC820D07000209070F4205070012052
:200A8000107010200423FFF791FF8CBDB0B51F20C1028F4C22460B3200250223284600F021
:200AA00093FD7D204102123403232846224600F08BFD02F0CBFBB0BD86488169491C8161E8
:200AC000044A914204D3824901228A71002181617047C046891300004801001080B5022920
:200AE00008D1417880290ED0002907D101780120002206E001780020132202E001780020F1
:200B00001222FFF785FF80BD80B5704A5278042A0ED1022910D141780A46813A022A10D345
:200B200002290FD0012911D101780120024606E0017800207F2202E0017800201322FFF7F7
:200B400067FF80BD017801200222F8E7017800201222F4E742000010F0B587B000212E4AE6
:200B600010290FD0425C120643185C782404A2189C7824021219DB78D218274B5A50264A68
:200B8000091DEDE7002002900426244F2C2E41D0B500A918081F006810390B68B10702D056
:200BA0005840505134E00193C1B20691010E0391010AC9B20591000CC0B2049003A80121AC
:200BC00000F0C6F8002010280CD003A90A5893000F24A4011C403B191207920E9A580A5005
:200BE000001DF0E7029B98000DA108580199484003990906049A12040A43059909021143F3
:200C0000069A0A4342400448425102465B1C0293761CBBE707B0F0BD300900101039000008
:200C20000000000100000002000000040000000800000010000000200000004000000080B5
:200C40000000001B00000036B0B50D46044600F03DFA7E2835D000F039FA7F2831D0042D73
:200C600022D31A484078022822D16078F12823D1A078842820D10D2D16D1FB48017F05299C
:200C800020D11349097801291CD1A51C062101772430E11C0A22FFF746FA617820780123C7
:200CA0002A46FFF783FEB0BD21780020132206E0217800207F2202E0217800203122FFF7CE
:200CC000A7FEB0BD217800203322F8E74200001048010010A801001070B58CB014460D46A3
:200CE0000021102904D004AA00235354491CF8E7102104AA08AE3346FFF766FA307840B20C
:200D0000002804D408A8294600F038F809E008A86E46314600F032F80C4930462A4602F089
:200D2000D5FB287840B2002804D42846214600F025F809E06E462846314600F01FF803499A
:200D40003046224602F0C2FB0CB070BD840000101FB50022102A04D083586C46A350121DD6
:200D6000F8E70022102A08D0032319408B006C46E3588350121D491CF4E71FBD10B5002264
:200D80000F23002B07D0C45C64001443CC54C25CD2095B1EF5E7007840001043087010BD86
:200DA000FEB5082818D8924C800001A210588746DB0D0000F30D0000F90D0000D50D00005A
:200DC000D50D0000D50D0000D50D0000D50D0000D50D000000202070FEBD27783C2945D025
:200DE0007D29F9D1BB4E3046022F00D192E0143091E000F021FAEDE7207BB6490870FE21CB
:200E000001407E2903D07B490978884211D1607B02280ED1A07B3E280BD1E07B802808D109
:200E2000A8480025856120460A300A21FFF794F9D9E0A8488679562E1DD8701CA54DA871B1
:200E4000E089218A628AEB68A789F6009F559B199A71120ADA711971090A59719870000A86
:200E6000D870380A5870AE79EF6819E0F148022F57D0173056E02B200001EE49CF68A189B7
:200E800039543818628A130AC3718271228A130A43710271E289130AC3708270090A4170E4
:200EA00020460A300A21FFF757F900202070701EC200B91848780F239843022E1ED310232F
:200EC0000343DBB2102B63D14B780293BA5C0192CA7800928E784D790B79CA798979B9713C
:200EE000FA713B717D71ED4DBE700099F970019939700299797001262E81AE71C0B220280D
:200F00002CD0102837D0002800D065E70120E3490871FEBD08300088022F12D03146123144
:200F200010E00B30017822460C320120082301F02AF9022020700A340A212046FFF70CF98B
:200F4000FEBDB11D0978884204D23146022F26D0183125E0022F2BD011212AE006217143B8
:200F6000A088814202D90121CC4A1171572E00D032E7801F0AE0C948C068F1000818811F10
:200F80000978C01F00780007000D4018A080FEBDBB5C02933B78029DAB4295D1AEE70C310F
:200FA0000968C0000A183046022F08D0173007E0052100207054022F0CD012210BE00B30C1
:200FC000017801250823284601F0E5F8022F07D0162006E006217054022F06D0142105E0DB
:200FE0000A20042131542570FEBD08217052F2E69401001042000010F8B56D4600272F80DD
:2010000018483049085C40020C1826463A362C48007831462A4600F043F9298800291FD089
:201020003A20225C1148782F04D0C35D9A4210D00837F8E700F04AF87E28224C0ED000F0F6
:2010400045F87F280AD0317800201122FFF7E0FC04E0C0194268304690471A4C0020A061C9
:20106000F8BDC04639040000A80100102435000010B5124C6079012808D1002060717D20DA
:20108000400221461231032201F0BCF8A079012811D10B48012141700020A071094C207733
:2010A0001F21490222462432142301F0EBF8206B0549884200D010BDFFF77CFA48010010D7
:2010C00042000010A8010010EFBEADDEC54800787047C04664000010FEB50446C24E37785B
:2010E000400720D5012600213D4602AF304600913A4601F03DF80195022D01D0172500E0D9
:201100000B253978FD4F7955304601F00BF8795DFF2803D0019FB44E009802E00320019FBB
:20112000B14EFFF73DFEE00728D03078022825D1012002AA014601F01BF8F07A072805D84A
:20114000411CF17230180299017317E0022F019701D0172500E00B25E848405D02A90F789C
:2011600031460C3100F0B1FFE449495D874201D1022000E00420FFF713FE019FE00409D51E
:20118000DE48022F01D0173000E00B3001780520FFF706FE200709D5D848022F01D01730BF
:2011A00000E00B3001780620FFF7FAFDE00509D5D248022F01D0173000E00B3001780120AD
:2011C000FFF7EEFD60040DD50120014600F070FFCA48022F01D0173000E00B30017808200A
:2011E000FFF7DEFDA00524D53078012821D1022F01D0162400E00A24C04D285D042818D1CC
:20120000022F01D0142600E00826A85BC0002946022F01D0183100E00C3109680818011D3B
:201220000120042200F0B3FF00202855A85B401CA853FEBD6400001070470000B0B5AF4B89
:2012400000249C825C749C749C69CC25E571A57165712571E570A570657025709C699D7CAC
:20126000ED00605598699C7CE40000190324447098699C7CE40000197F24847098699C7C15
:20128000E4000019C1709869997CC90040180271987C401C98740120B0BDC04664000010F2
:2012A000F0B587B005910690944C2079002800D190E002920020049020716679F700012074
:2012C0000390494DA07986427DD2E068C1194A78F0231340202B1ED0102B4DD0002B6FD16F
:2012E000C15DA970069B994203D0FE2319407E2962D10F210A402A816179C9004018811C57
:201300000598FEF710FF0020E880A071208160710398049054E0C05DAB7898424CD10F2553
:201320002A4023891D40954240D1002B2E4D43D0069A904203D0FE2210407E283CD1EA88BF
:20134000062A134600D3062300932889801A0192059A1018891C1A46FEF7E5FE01980099C1
:20136000401AE8802189491C2181000428D1002020816071A071CBE7C05DA870069B9842F8
:2013800003D0FE2318407E2816D188781207120D151815480581C91C05220598FEF7C3FECD
:2013A000681F114DE8800120208109E0002B0E4D02D0562BACD003E0002020816071A0715A
:2013C0000837761C7EE701200499084000D02889029A01E00020014610800120084007B0BC
:2013E000F0BDC0466400001094010010F0B585B002AB07C3002A2CD0404F0020B8827874D5
:20140000B874B869CC21C1713D4A140C8471150A45710271C1700194847000954570027006
:20142000B869B97CC900029A42540498062815D8B869B97CC9004018049A4270B869B97C87
:20144000C9004018801C0399FEF76DFEB87C401CB8740498411E884105B0F0BDB869B97C9B
:20146000C9004018049A1105090F10314170B869B97CC90040188270B869B97CC9004018AD
:20148000C01C05220399FEF74EFE0498441F0126B87C401CB8742104DBD0B969C0B2C00066
:2014A000174A0A540818110EC171019D8571009B43710271C17085704370B869B97CC900AE
:2014C000029A4254B869B97CC90040180F21314020314170A0B20628254600D30625AAB27B
:2014E0000499081A03990918B869BB7CDB00C018801CFEF718FE641B761CC9E76400001089
:20150000CCCCCCCC10B50B48C17910290BD20A4A53189A785218094CA4691419027A1419C0
:201520009C70491C01E0027A0021C171511C017210BDC0464801001042000010A801001073
:2015400070B503460024E043002B00D070BD551801231E04B542F9D87A4D7B482860180603
:201560007A4B1E6886431E600846114600F004F877482860204670BDF8B5744CE268102384
:2015800000939A43E2604118491E490A491C8EB2400A87B20B4DB7420ED27F2039460140CE
:2015A0002268824350182060EFF3108072B62868804762B67F1CEEE7E06800990843E0600F
:2015C000F8BDC046CC000010F0B587B01F465818002401231B04984201D9E04353E00394BB
:2015E000029203230846184012D00C460A469A43116852680592049104A909180822121AA7
:20160000BA4200D33A4602980392FEF78CFD2146039BFD1A07242A462240082D20D30092FB
:2016200001915A180298C318A5430027AF4219D2D41964682946D559DD55DE193471280EEC
:20164000F070280CB070280A7070200EF071200CB071200A7071059404950D460837E5E74D
:20166000029C04E0039BDB19029C0199009A002A08D058585918496805910490E01804A9E1
:20168000FEF751FD002007B0F0BD0000F8B515460E4601460022D043002900D0F8BD1C469B
:2016A0009B1901210F04BB42F8D81348134F382A04D0835C5B1EBB54521CF8E73620FF2256
:2016C0003A54BA771F4A2048106008061F490A6882430A6030462146FFF74EFF30462946EE
:2016E000224600F037F81A481649086038213846FEF732FD0020F8BD9400001000000010B6
:20170000F8B504460025E843002C00D0F8BD5E1801242704BE42F9D8EFF3108072B6094E49
:20172000094830602006094C276887432760084611461A4600F00EF8F648306062B628461E
:20174000F8BDC046F800FF0055AA55AA1C00FF0078563412F0B587B00E4604462B4908684C
:201760001023039398430860072013460340082A029028D300930192154685430027AF427A
:2017800023D2F01901794279120251188279C3791B029A18120451180591F15D4278120262
:2017A00051188278C07800028018000440180490E019EFF3108172B615490A6804A990471C
:2017C00062B60837DBE7002701E0019A009B002B14D00020C0430590049002988243B1182F
:2017E0001A4604AD2846FEF79EFC3819EFF3108172B607490A682946904762B60349086813
:20180000039A1043086007B0F0BDC0462800FF00D0000010B0B50C46064D062800D20C35B4
:201820000621FEF7B1FC880029580722914321432950B0BD0020004002460120022A0BD8B7
:20184000002A09D0012A03D104480068C0B201E003480068087000207047C04630600040A7
:2018600030B0004002460120022A0DD8002A0BD0002909D0012A03D105480068C0B201E0C0
:2018800002480068087000207047C04604B000400460004001460120022918D8002916D017
:2018A000002A14D0002B12D0012901D0094800E007480168022291430160016804220A43F4
:2018C00002600168012292060A430260002070470860004008B0004002460120022A0DD8E2
:2018E000002A0BD0012A08D10F2000036C4A136883430807000C1818106000207047C0461E
:20190000F8B504460120022C2FD8002C2DD0002A2BD0002B29D0274D2748012C2E4600D0B4
:201920000646766EB60614D4012C00D00546A8680224A043A860A868012676060643AE6060
:201940000E467D3E701E864100203C290ED101460DE0012C00D00546E86D20210143E9651B
:201960000C21204600F0E0F90420F8BDB101AE684027BE437118A960A9680F263604B143FC
:201980001E07360B8919A960A9682143A960042B00D304230146CCB2A342E6D9AE6A760791
:2019A000FCD4145D2E68FF27BE4334192C60491CF1E7C0460060004000B00040F8B50228A6
:2019C00001D9012561E00D46044600283DD0C048012C00D0143000680006000F461C01F0DB
:2019E000B7FA3146FEF7D0FB060930462946FEF7CBFB074628467843301A00012946FEF72B
:201A0000C3FB0007000C22493940431821482249012C024600D00A46136016691F4B33407E
:201A20001F4EAC4FBD421FD308252B431361012C00D008460025456220462946FFF74CFF11
:201A400030684021884330601FE001F0C9FA2946FEF79AFB13490A68134B1340401E134A4C
:201A60000240981808600FE0C8252B431361012C00D008460721416203212046FFF72CFF8D
:201A8000306840210143316000252846F8BDC046FF0100001460004014B0004000FEFFFF76
:201AA0002CF000400440004000C0FFFFFF3F000010B5EC49EC4A0A60154A00281AD01369C3
:201AC00001242343136100BF00BF1369A343136100BF00BF924A20231360E14A1360800085
:201AE000804A8018001FBFF34F8FBFF36F8F002202600AE0106801231843106000BF00BFD2
:201B000010689843106000BF00BFDE48086010BD1010004078563412F8B516460C4605460F
:201B2000D04A022802D9D048106062E010D0012D36D0002DF7D1022701213846FFF76AFE8C
:201B4000C84AC948106062481038016839434FE00320009605263146FFF75CFE0427384698
:201B60003146009EFFF756FEE948E84908605848416901221143416141699143416141690F
:201B800002220A43426141693943416161784269F0239A430907090E5118DC4A416128E095
:201BA000207B022809D1072002273946FFF732FE08203946FFF72EFED44AD5481060444891
:201BC00001681746012211430160016891430160016802220A430260016804220A4302604F
:201BE00061780268F0239A430907090E51183A460160D648106021692846FFF7DFFE002DBB
:201C00005FD00096624E634B012D304600D01846227B4168022A07D10122114341604168C4
:201C200004229143416009E0012291434160207B012803D15003616801436160012D30462B
:201C400000D01846416908220A43426120692149884204D301208003616881436160277B6A
:201C60000321284600F060F8012D3046494B00D01846012F01D0194900E01749022F00D17F
:201C800007210160426D16490A434265607A002811D0012D00D01E466068B26D0840824380
:201CA000B265A8000F494018001F00990160012D08D00A2007E0012D00D01E46B06D0843BB
:201CC000B065F8BD0520217AFEF760FCF8BDC04620100040014B0000ED870860ED850860FC
:201CE000FFFF7F00E408001002460120022A15D8002A13D0012A02D00120800200E020201C
:201D0000884A1060002902D00649086005E0C2490860BFF34F8FBFF36F8F00207047C0465A
:201D200080E200E000E100E070B500292ED000282CD0CA07164A174B08D00128144600D072
:201D40001C462568012676062E4326608C0708D50128144600D01C4625680126B6062E43F4
:201D600026604C0708D50128144600D01C4625680126F6052E432660090707D5012800D06D
:201D80001A461068012109060143116070BDC0460860004008B00040FEB50292012302281D
:201DA00036D8002934D0029A002A31D001910027184C194D194E009702998F4227D0002815
:201DC00019D001280CD002281FD1B16A4907FCD40199C95D3268FF239A435118316014E079
:201DE000A96A4907FCD40199C95D2A68FF239A435118296009E0A368DB07FCD10199CA5D09
:201E00002168FF239943891821607F1CD4E7009B1846FEBD004000400060004000B00040FF
:201E200010B57D4810210160BFF34F8FBFF36F8F3D48002101603848434A82610160416845
:201E4000374A0A404260414981613048304A0260304A13680224A3431360016010BDC046AD
:201E600080E100E0FC1000405A5A5A5A2A49364A8A610A6801239A43101808603348886128
:201E80007047C04678563412F8B50D460446FFF7C7FF1E491E4808601E48026802231A43E4
:201EA00002602A4808601C49274A8A61012216020F6837430F60267B0F689F4373061B0EEE
:201EC0003B430B602369154E1E404B68144F1F40BB194B60637A53404E6996431E434E61C8
:201EE0000B6913430B618861607A00280DD00D48102101600C4805600C480168FF22914392
:201F0000227A9201D2B251180160F8BDFC1000405A5A5A5A1410004000A00040FFFF0F008A
:201F20000000F0FF80E200E0E009001004E400E0044805498160016801220A4302600349AD
:201F40008160704710A000405555AAAA7856341270477047F8B501F0B5FAFFF74DF8FFF7FB
:201F600087F8FFF7CFFA2B4FF87F012836D000284DD101263046FEF709FDE74CA069401C8D
:201F8000A061332843D30025A5611F2041023A4624321423284600F075F9386B1F49884274
:201FA00019D1A07C022102460A43032A30D11C4A517003213977012805D10220FEF756FDD1
:201FC0000120FEF7E3FCA5747D20400212340322214600F017F90220F877F8BD0E4808217D
:201FE0000160BFF34F8FBFF36F8F20210160BFF34F8FBFF36F8F012000F073F8FFF7A8FF45
:20200000412000020168406881F308888047F8BDFE77F8BDA801001080E100E0EFBEADDE70
:202020004200001010B5FEF747FDBB4C2079012816D1E089401CE08180B21249884205D34B
:202040000020E08131217822FEF7E2FC607A401C6072C0B2652803D30020607201F032FA54
:20206000207D03280CD3208A401C208280B20649884205D302202075002020820120607183
:2020800010BDC046090700001127000010B50023102B0CD0934201D2C45C05E09A4202D1CA
:2020A00080248C5401E00024CC545B1CF0E710BD80B50A46012111404B42052119409207BF
:2020C00000D50A31FFF730FE80BD80B5024600203C2A02D07D2A00D010460822FEF79EFB35
:2020E00080BD80B5FFF7E4FC80BD0000B0B586B0044601AD00202880FF2004302881481E9E
:2021000081412973059206480290204629461A46FFF702FD01212046FFF7E6FD06B0B0BD3C
:202120002D5F0000B0B501220B4613404C080D09654015406B404A07D20F5A4092010B0767
:20214000DB0F6B408C06E40F5C40E343DB019A18012806D14A401006800F05D00020C143ED
:2021600004E00A43D0B2B0BD3F200140C8B2B0BD80B5002903D01146FFF774FB80BD114637
:20218000FFF75AFB80BD80B5FFF784FB80BD80B5FFF702FE80BD80B5FFF7B2FB4142484184
:2021A00080BD0000F0B5FFB082B014460091064631490140314D6B1C002001AF3A46FFF71F
:2021C00003FA2E403019395C38184278120251188278C0780002801800044518BE192848BB
:2021E00031462246FEF790FB0746854204D1009831462246FDF797FFE91B484248417FB050
:2022000002B0F0BDF0B5FFB086B017460C460546194901401948431C002005AE0290009182
:2022200032460493FFF7D0F914480540761930460194214603973A46FDF799FF002818D078
:2022400030460199039F3A46FDF76DFF0C4831463A46FEF759FBE91905AA50545118029BFD
:20226000CB708B70000A487018460099049BFFF70DFA7FB006B0F0BD00FEFFFFFF01000045
:20228000FFFF000080B5FFF79FF94142484180BD7CB50D460446FEF719FF7E2836D0FEF7B8
:2022A00015FF7F2832D0062D27D16078F32828D1A0783F2825D1E078FF2822D120790228A0
:2022C0001FD1607903281CD81F20C0029D4E31460B3102252A46FFF765FFF07A6179884278
:2022E00015D169460871CD70002088704870087020780522FEF774FB7CBD21780020132201
:2023000002E0217800203122FEF782FB7CBD217800207222F8E7C04648010010F0B589B0BB
:202320000D460746FEF7D2FE7E2800D182E0FEF7CDFE7F287ED0032D17D1BE787C78200246
:202340008519284600F05AFF00283ED0002008AB01462A4600F08CFF37498E704C70387803
:20236000089A491C921C92B25BE0281F072828D8681EC10725D1029700260496400804A921
:2023800008700796069605960421CF43C0B20390062534460398B04219D002984019C119CD
:2023A0004978C05D0002401804A9485380B200F025FF002801D00120B0400443AD1C761CAB
:2023C000E8E739780020132232E039782EE004A88480200428D004A8871DA0B20190002434
:2023E000154D26460398A04215D00198E040C0070ED0B0B240193A888270110A4170F01C08
:20240000C1B2012008AB00F033FF08983018861CBF1C641CE6E704A8468002980078691C98
:20242000B2B2FEF7DDFA05E00298017800203122FEF7EEFA09B0F0BDE40500107CB50D4641
:202440000446FEF743FE7E2876D0FEF73FFE7F2872D0FA48407802280CD10B2D0ED1F8489D
:20246000007801280ED1607800280FD02178002012225FE0217800207F225BE02178002083
:20248000132257E021780020332253E0A07844284DD1E0790006217A09040818617A0902E0
:2024A0004018A17A4118E0780006227912041018627912028018A2798318E248027F551FBD
:2024C000022D19D201221507AB4230D140292ED12021402343548723DB000026C6520560EA
:2024E000072303778660C6600661426101AA164810802078022317E00B2A1ED1416343606A
:2025000001218A03934212D18722D200002383520C2202778360C3600361416101AA02235E
:202520005370137020782021FEF740FA7CBD217800203122FEF76CFA7CBD21780020702229
:20254000F8E7C0464801001002020000B0B50D460446FEF7BBFD7E2826D0FEF7B7FD7F289E
:2025600022D0B6484078022809D1012D0BD1B548017F0D290BD0082911D1092108E0217859
:2025800000207F220EE02178002013220AE00E210177207800210A46FEF722FAB0BD2178ED
:2025A00000202422FEF734FAB0BDC04680B5022908D14278911E022908D31146823902293A
:2025C00007D280BD01780020132209E00178012006E0812A0FD0012A05D001780020122257
:2025E000FEF716FA80BD017801200246FEF710FA3220FEF7CBF9FDF7DDFF0000F0B58BB0FD
:202600000E4604460AA800258570058002A820273946FDF7A1FDFEF759FD7E2800D1BAE06D
:20262000FEF754FD7F2800D1B5E0607880210143812925D1012001906070E178A0780202F3
:2026400052187B4B9A421FD07A4B9A4240D0FF200002824266D07848824200D08EE0FC48AD
:202660004078042800D085E0042E00D08AE0F948017F491E012900D988E002210177B4E013
:2026800021780020122284E0F1484078022871D1042E77D1EF4A107F0F2877D1EB488078A0
:2026A000012873D1102010770AAEB570A0783070E0786549116370701F20410224321423F8
:2026C0002846FFF71DF861782078032332469DE0DF4B5A78022A4DD1142E53D1DD4E327F6D
:2026E0000E2A5AD0092A00D088E0F15D574802AA00921E4600F058FA12363046D34E2C36FB
:2027000000993A463346FDF793FF211D3046FEF7EAF801287DD10A20CE4908770198CB4932
:20272000487062E0CA484178022923D10C2E29D1C84D297F0A2929D1C4494978012925D1A9
:20274000217800787822FEF779FD5A20FEF71EF91F2041025D2042020020FEF7F1FE0B206B
:202760002877A0780AAA1070E07850706178207802234BE0217800207F220AE02178002098
:20278000312206E021780020132202E0217800202222FEF73DF90BB0F0BD217878222846FF
:2027A00037461E46FEF734F9FD4901980871CD81796B800302AA009200F0F6F91236F84963
:2027C0000F463C37202230460E4600993B46FDF72FFF3571211D3846FEF785F801281ED1FD
:2027E0000198B0700F20EC4908770AAA9570A0781070E07850706178207806E00AAA0223A4
:20280000937051701070207801210323FEF7CEF8C1E7E34845700AAA02209070E7E7B57088
:202820000AAA02209070E0785070A0781070E2E701FF000002DD0000030200004200001013
:2028400048010010A8010010EFBEADDE00000010F0B585B00D460446FEF738FC7E2847D0C1
:20286000FEF734FC7F2843D0022D01D0122D37D1774E7078022816D16078892803D00A28E6
:2028800018D0092836D1022D2AD1704D287D022837D8287801283DD1E87801284FD10020B3
:2028A000E870287048E069490020C870087021787F221BE0122D13D16648007F042837D1C5
:2028C000624D287B6838032868D8C04678440079400087440155595D304612306AA15AE04C
:2028E0005A490020C870087021781322FEF790F805B0F0BD55490020C8700870217812227D
:20290000F4E70020E8702870524903220A7721783722EBE74F48017FC91E012916D81C2174
:202920002C2919D072181A3A12786A54491CF7E746490020C870087021782422D6E71C20B9
:202940002C2813D000212954401CF9E70020E870287021782222C9E70421017761782078BB
:202960001C3510232A46FEF721F8C1E7617820782A461C321023FEF719F80120E870B7E72E
:20298000304612303CA106E03046123036A102E03046123030A11022FDF7C5FB1236294625
:2029A0001C31102201AF30463B46FDF741FEA11C3846FDF798FF01281AD10120009028709B
:2029C0000520244908777D20470212350326384629463246FFF7E6FB00201C4908753846D4
:2029E00029463246FFF70EFC6278217800987DE7032018490877287D7D214E02022811D8D8
:202A00002946123103223046FFF7CCFB287D401C2875C1B2022905D80020E87028702178EA
:202A2000352208E00021E97029702178C0B203280AD100203622FDF7EBFF123503223046FB
:202A40002946FFF7DFFB53E7002076E74801001042000010A80100102A7EF5257E01E606EF
:202A6000CD0C68FEA03E5E5C485424F9F5763E2B9987D0111A8BD28232A98303AD07AE9C99
:202A80002B461FDE1DA5467688B34F45E10DBBC35DBF7ECF868E736070B5044602292CD128
:202AA0006078012809D002282DD0032836D083283ED0822827D0812841D1384D6878022840
:202AC0000CD11F204102344E3246243200201423FFF7D8FB306B3349884241D0304800219C
:202AE000C17001226A702C4A117701706078012808D10120FDF7BAFF70BD21780020132276
:202B0000FDF786FF70BD2449087F02280AD3234A0220507003220A77C8771AE01F484178C6
:202B2000022910D1217800207E22FDF771FF12E01948012101771948042141700BE0217824
:202B400000201222DCE7144901220A77042141706078FDF78BFF12480021C170017070BDE7
:202B60006078812816D07D2044020D4E35461235032220462946FFF715FBF07C012806D083
:202B80000120F074032220462946FFF73BFB0520FDF7FCFEFDF70EFDA8010010420000106D
:202BA00048010010EFBEADDEF0B5E9B005920E46019038200840382801D0402000E0802019
:202BC0003F2132468A43101880090690770FF000109059A83830029000218A480F908A4894
:202BE0000E908A480D908A480C908A480B908A480A908A4809908A480890049603970698DA
:202C0000814200D1DBE059A8402507912946FDF7A3FA0798800186421ED901990918341A7F
:202C2000402C254600D3402559A82A46FDF77BFA3F2C20D859A880214155372D1BD8402554
:202C4000029C002D17D0083D109839462A46FDF759FA2070641CF4E759A880210170029C03
:202C6000002D08D0083D109839462A46FDF74AFA2070641CF4E7002040280FD059A90A5C81
:202C8000120609184B781B049A188B781B02D218C978511819AA1150001DEDE70020C02896
:202CA0001BD019AB19188A6B13241546E5411124960AE2416A4072404C6812252646EE41AD
:202CC0000725E708EC4174407C401B58E3184C6A1B199A180A64001DE1E7402419A8159015
:202CE000504814900CAE65CE17900B990A9F0998189008981690189818970F462B46354688
:202D0000002C3BD00D212E46CE41022113902846C841704016212E46CE41464010461840F0
:202D20001146594029404140881912900B203946C1410620119323463C46C4414C4019204B
:202D40003946C14161401C4618983840081816994018139B1946B9434018149E02CE149613
:202D60004018159E02CE1596401812990E1817994118641E1792119A1693BCE70146089892
:202D8000169C201808900998081809900A98189908180A900B9838180B900C981799081848
:202DA0000C900D9810180D900E9818180E900F9828180F900799491C049E039F1FE7089824
:202DC000209009981F900A981E900B981D900C981C900D981B900E981A900F9819900020F3
:202DE00020280CD019A909580A0E059B1A541A18D1700B0A9370090C5170001DF0E769B0F8
:202E0000F0BDC04667E6096A85AE67BB72F36E3C3AF54FA57F520E518C68059BABD9831FCE
:202E200019CDE05B9C35000070B58CB004460F20C543284600280ED008A909182218136AC1
:202E40000B6104A90918136B0B6169460918126C0A61001DEEE708A801210D4EB04704A8D3
:202E60000221B04768460321B047002D0ED0601908A949190969016204A94919096901631E
:202E800069464919096901642D1DEEE70CB070BD510D000070B500210A4A042911D0002319
:202EA000102B0BD0C458A5000F26B6012E4095192407A40E2C59C4501B1DF1E71030491C08
:202EC000EBE770BD1039000080B500F041F80C4908607D21C900FDF757F9401E010E0DD199
:202EE0000849094A5060094803680B400321890759180160002090600720106080BDC04607
:202F000080000010FFFFFF0010E000E020ED00E010B5304A304B1360144B012805D00028B5
:202F200007D118680124A04302E01C680120204318601868F024A0430907090E4018186061
:202F400018680821014319602448106010BDC04606490868C00702D07D20000200E0044839
:202F600009680906090FC8407047C04600100040006CDC0210B51749174A0A6007231840E8
:202F80001C4A14689C432018106010680823034313600220C043936803409360D368034098
:202FA000D360136903401361536903405361936903409361D3690340D361936A03409362DD
:202FC000D36A0340D362136B034013630348086010BDC046FC1000405A5A5A5A78563412B7
:202FE00010B50448006807240440FFF7B1FFE04010BDC04604100040F0B52648016800225E
:20300000264C274D1646202A42D00F46D740FF0702D0761C521CF6E725607F2737400A2F16
:20302000F7D8C0467F443F797F00BF4405090D1115191D2125292D004368174F7B60E8E7F0
:203040008368154F3B60E4E7C368134F3B61E0E70369114FFB63DCE743690F4F3B63D8E777
:2030600083690D4F7B61D4E7C3690B4F3B64D0E7036A094FBB60CCE7436A074FBB63C8E732
:20308000836A054FBB61C4E7C36A034FFB61C0E7F0BDC046040080000CF00040FCF0004007
:2030A0001032547605490A68824203D2C0430968081870470968081A7047C046EC0800100C
:2030C000F8B50D460446FEF701F87E2812D0FDF7FDFF7F280ED065484078022805D1022D27
:2030E00009D821780020132202E0217800207F22FDF78EFCF8BD3E48854203D321780020B6
:203100003122F5E7DA4E307F01460C3902290ED3C01F01282CD8082030772020325CA11CAB
:203120003548FDF700F8627821780120E0E70D2030776078002817D0F168491C814213D1AB
:2031400070610120B077AF1E3069C01930617168880B02D0C80A1E280ED98720C1000020C1
:2031600070522178722221E0217800207322BFE7217800202422BBE7A21CBBB2002528460C
:20318000FEF7BEFA8720C000315C491CCAB2012A00D80D4635547069F0607068C019706024
:2031A000B068C019B060627821780120FDF730FC3069410A04D1B1680818716B884208D1E9
:2031C0000C48315C491CCAB2012A00D90021315404E0217800207122FDF71AFC706BB16855
:2031E000814287D18720C00000213152F8BDC046030200003904000000000010B0B5974957
:2032000041180124172906D801228A400D4B1A4215D1092905D09349884210D0904988425B
:203220000CD11F204102924D2A46243200201423FFF728F8286B0449884200D00024204619
:20324000B0BDC04691048100EFBEADDE8948017BFC220A40682A00D06821044A1170017DC0
:20326000042901D3002101757047C04642000010F0B58FB01E4617460191054673A00CA95D
:203280000CC80CC10088088006A8152420222146FCF75BFF704805900490039002906F48E3
:2032A00038180A2817D8C046784400794000874405CBCBCB2ECBCB3DCB434D0008233380B7
:2032C00039200102002402AA2046FEF77DF9002D6AD0019969E0624887423DD061488742B5
:2032E00054D06148874200D0AEE00A2030806148C07A032807D8C0005F49C1400CAA9171F2
:203300005E49C1405171002D7AD0019979E00A2030801F204102564C2246243200201423C6
:20332000FEF7B0FF002D49D0019948E00C203080002D4FD001994EE0182030800120810364
:203340004A48002D7BD0019A821879E00A203080002D4AD0019949E034800120810318314F
:20336000002606AA30462346FEF72EF94148C07A032807D8C0004049C14006AA11723F49AA
:20338000C140D171002D46D0019945E008233380392001020831002404AA2046FEF714F93B
:2033A000002D42D0019941E0032130484018082C4AD002A9095D0155641CF8E703212B4874
:2033C000401824212E293FD0625C4318243B1A70491CF7E703212548401800212BA20C2999
:2033E00032D0535C4354491CF9E703211F484018002123A20A2927D0535C4354491CF9E7C2
:2034000003211A48401800210A291DD00CAA525C4254491CF8E7032114484018152E13D051
:2034200006A9895D8155761CF8E703210F484018082C09D004A9095D0155641CF8E7C21C2A
:2034400000201823FEF7C0F80FB0F0BD454849535F464C202020000020202020800EFFFF72
:203460001602000089F0000097F10000E4050010A8010010480100104C4C525246524652BC
:20348000333139372020202020200000343238303331302D525730320000000010B586B003
:2034A00001AA0124147303211181002111800291400105901046FEF7E7FC2046FEF7D6FC89
:2034C00006B010BD80B5FEF733FD80BDB0B50023102B05D0C45CCD5C6540D5545B1CF7E7CE
:2034E000B0BD00000200000003000000010000000100000001000000020000000300000052
:2035000001000000010000000100000002000000030000000300000001000000010000009E
:203520000200000010000000992A000011000000AD25000027000000512800002E00000005
:20354000490C000031000000FD250000340000003D24000036000000C130000037000000D0
:203560004D250000140000003B080000B5000000E5060000B200000091220000220000005B
:203580001D230000280000004908000085000000090B00003E000000DD0A0000982F8A4221
:2035A00091443771CFFBC0B5A5DBB5E95BC25639F111F159A4823F92D55E1CAB98AA07D827
:2035C000015B8312BE853124C37D0C55745DBE72FEB1DE80A706DC9B74F19BC1C1699BE425
:2035E0008647BEEFC69DC10FCCA10C246F2CE92DAA84744ADCA9B05CDA88F97652513E9809
:203600006DC631A8C82703B0C77F59BFF30BE0C64791A7D55163CA0667292914850AB727E8
:2036200038211B2EFC6D2C4D130D385354730A65BB0A6A762EC9C281852C7292A1E8BFA2A7
:203640004B661AA8708B4BC2A3516CC719E892D1240699D685350EF470A06A1016C1A419F1
:20366000086C371E4C774827B5BCB034B30C1C394AAAD84E4FCA9C5BF36F2E68EE828F7451
:203680006F63A5781478C8840802C78CFAFFBE90EB6C50A4F7A3F9BEF27871C60000000082
:2036A00000000000000000000000000000000000000000000000000000000000000000000A
:2036C0000000000000000000000000000000000000000000000000000000000000000000EA
:2036E0000000000000000000000000000000000000000000000000000000000000000000CA
:203700000000000000000000000000000000000000000000000000000000000000000000A9
:20372000000000000000000000000000000000000000000000000000000000000000000089
:20374000000000000000000000000000000000000000000000000000000000000000000069
:20376000000000000000000000000000000000000000000000000000000000000000000049
:20378000000000000000000000000000000000000000000000000000000000000000000029
:2037A000000000000000000000000000000000000000000000000000000000000000000009
:2037C0000000000000000000000000000000000000000000000000000000000000000000E9
:2037E0000000000000000000000000000000000000000000000000000000000000000000C9
:203800000000000000000000000000000000000000000000000000000000000000000000A8
:20382000000000000000000000000000000000000000000000000000000000000000000088
:20384000000000000000000000000000000000000000000000000000000000000000000068
:20386000000000000000000000000000000000000000000000000000000000000000000048
:20388000000000000000000000000000000000000000000000000000000000000000000028
:2038A000000000000000000000000000000000000000000000000000000000000000000008
:2038C0000000000000000000000000000000000000000000000000000000000000000000E8
:2038E0000000000000000000000000000000000000000000000000000000000000000000C8
:2039000042543A422E30342048573A422E322E30630000007C000000770000007B00000039
:20392000F20000006B0000006F000000C50000003000000001000000670000002B00000033
:20394000FE000000D7000000AB00000076000000CA00000082000000C90000007D000000DF
:20396000FA0000005900000047000000F0000000AD000000D4000000A2000000AF000000EB
:203980009C000000A400000072000000C0000000B7000000FD000000930000002600000048
:2039A000360000003F000000F7000000CC00000034000000A5000000E5000000F100000020
:2039C00071000000D8000000310000001500000004000000C700000023000000C3000000A7
:2039E0001800000096000000050000009A000000070000001200000080000000E2000000FF
:203A0000EB00000027000000B20000007500000009000000830000002C0000001A0000009B
:203A20001B0000006E0000005A000000A0000000520000003B000000D6000000B3000000ED
:203A400029000000E30000002F0000008400000053000000D100000000000000ED00000096
:203A600020000000FC000000B10000005B0000006A000000CB000000BE00000039000000F2
:203A80004A0000004C00000058000000CF000000D0000000EF000000AA000000FB00000005
:203AA000430000004D000000330000008500000045000000F9000000020000007F000000FF
:203AC000500000003C0000009F000000A800000051000000A3000000400000008F00000050
:203AE000920000009D00000038000000F5000000BC000000B6000000DA00000021000000FD
:203B000010000000FF000000F3000000D2000000CD0000000C00000013000000EC000000F9
:203B20005F000000970000004400000017000000C4000000A70000007E0000003D0000000E
:203B4000640000005D000000190000007300000060000000810000004F000000DC0000000C
:203B6000220000002A000000900000008800000046000000EE000000B800000014000000E1
:203B8000DE0000005E0000000B000000DB000000E0000000320000003A0000000A000000AD
:203BA0004900000006000000240000005C000000C2000000D3000000AC0000006200000093
:203BC0009100000095000000E400000079000000E7000000C8000000370000006D0000000F
:203BE0008D000000D50000004E000000A90000006C00000056000000F4000000EA000000CC
:203C0000650000007A000000AE00000008000000BA00000078000000250000002E0000008A
:203C20001C000000A6000000B4000000C6000000E8000000DD000000740000001F000000F0
:203C40004B000000BD0000008B0000008A000000700000003E000000B5000000660000007E
:203C60004800000003000000F60000000E000000610000003500000057000000B90000004F
:203C800086000000C10000001D0000009E000000E1000000F80000009800000011000000A0
:203CA00069000000D90000008E000000940000009B0000001E00000087000000E900000077
:203CC000CE0000005500000028000000DF0000008C000000A1000000890000000D000000F7
:203CE000BF000000E6000000420000006800000041000000990000002D0000000F0000005F
:203D0000B000000054000000BB0000001600000000000000000000000000000000000000CE
:203D2000000000000000000000000000000000000000000000000000000000000000000083
:203D400000000000000000000000000000000000000068016BC1BEE22E409F96E93D7E11D6
:203D60007393172A88B34F45E10DBBC35DBF7ECF868E73604200000000000000000000002F
:203D80002C0600100000000000000000F0080010006CDC020000000000000000000000008F
:203DA00000000087020101011A0101010549026902230B440361C26B8A08FDD57148C14777
:203DC0002101FF010B694A6942610361034902694A08FDD57148C1474D01FF010900001090
:203DE0002100001000000000FFFFFFFFFFFFFFFFFFFFFFFFFFFFFFFFFFFFFFFFFFFFFFFFAA
:203E0000FFFFFFFFFFFFFFFFFFFFFFFFEFBEADDE80A30000FFFFFFFFFFFFFFFFFFFFFFFF5F
:203E2000FFFFFFFFFFFFFFFFFFFFFFFFFFFFFFFFFFFFFFFFFFFFFFFFFFFFFFFFFFFFFFFFA2
:203E4000FFFFFFFFFFFFFFFFFFFFFFFFFFFFFFFFFFFFFFFFFFFFFFFFFFFFFFFFFFFFFFFF82
:203E6000FFFFFFFFFFFFFFFFFFFFFFFFFFFFFFFFFFFFFFFFFFFFFFFFFFFFFFFFFFFFFFFF62
:203E8000FFFFFFFFFFFFFFFFFFFFFFFFFFFFFFFFFFFFFFFFFFFFFFFFFFFFFFFFFFFFFFFF42
:203EA000FFFFFFFFFFFFFFFFFFFFFFFFFFFFFFFFFFFFFFFFFFFFFFFFFFFFFFFFFFFFFFFF22
:203EC000FFFFFFFFFFFFFFFFFFFFFFFFFFFFFFFFFFFFFFFFFFFFFFFFFFFFFFFFFFFFFFFF02
:203EE000FFFFFFFFFFFFFFFFFFFFFFFFFFFFFFFFFFFFFFFFFFFFFFFFFFFFFFFFFFFFFFFFE2
:203F0000FFFFFFFFFFFFFFFFFFFFFFFFFFFFFFFFFFFFFFFFFFFFFFFFFFFFFFFFFFFFFFFFC1
:203F2000FFFFFFFFFFFFFFFFFFFFFFFFFFFFFFFFFFFFFFFFFFFFFFFFFFFFFFFFFFFFFFFFA1
:203F4000FFFFFFFFFFFFFFFFFFFFFFFFFFFFFFFFFFFFFFFFFFFFFFFFFFFFFFFFFFFFFFFF81
:203F6000FFFFFFFFFFFFFFFFFFFFFFFFFFFFFFFFFFFFFFFFFFFFFFFFFFFFFFFFFFFFFFFF61
:203F8000FFFFFFFFFFFFFFFFFFFFFFFFFFFFFFFFFFFFFFFFFFFFFFFFFFFFFFFFFFFFFFFF41
:203FA000FFFFFFFFFFFFFFFFFFFFFFFFFFFFFFFFFFFFFFFFFFFFFFFFFFFFFFFFFFFFFFFF21
:203FC000FFFFFFFFFFFFFFFFFFFFFFFFFFFFFFFFFFFFFFFFFFFFFFFFFFFFFFFFFFFFFFFF01
:203FE000FFFFFFFFFFFFFFFFFFFFFFFFFFFFFFFFFFFFFFFFFFFFFFFFFFFFFFFFFFFFFFFFE1
:2040000053573A312E30312E425F3236303332375F333139375F303553573A4548495346AF
:204020004C2E312E33432E303520202020000000FFFFFFFFFFFFFFFFFFFFFFFFFFFFFFFF2E
:20404000FFFFFFFFFFFFFFFFFFFFFFFFFFFFFFFFFFFFFFFFFFFFFFFFFFFFFFFFFFFFFFFF80
:20406000FFFFFFFFFFFFFFFFFFFFFFFFFFFFFFFFFFFFFFFFFFFFFFFFFFFFFFFFFFFFFFFF60
:20408000FFFFFFFFFFFFFFFFFFFFFFFFFFFFFFFFFFFFFFFFFFFFFFFFFFFFFFFFFFFFFFFF40
:2040A000FFFFFFFFFFFFFFFFFFFFFFFFFFFFFFFFFFFFFFFFFFFFFFFFFFFFFFFFFFFFFFFF20
:2040C000FFFFFFFFFFFFFFFFFFFFFFFFFFFFFFFFFFFFFFFFFFFFFFFFFFFFFFFFFFFFFFFF00
:2040E000FFFFFFFFFFFFFFFFFFFFFFFFFFFFFFFFFFFFFFFFFFFFFFFFFFFFFFFFFFFFFFFFE0
:20410000D00F0010C1410000395900001D55000000000000000000000000000000000000AA
:20412000000000000000000000000000E94100000000000000000000EB410000795A000056
:20414000C9520000514A0000EF4100003D5C0000EF41000091590000794A0000EF410000D3
:20416000EF410000995C000079680000EF410000EF410000EF410000EF410000EF41000049
:20418000EF410000EF410000EF410000EF410000EF410000EF410000EF410000EF4100009F
:2041A000EF410000EF410000EF410000EF410000EF410000EF410000EF410000EF4100007F
:2041C00072B60B480B4901600B480C49016000200B490C4A0860091D9142FBD30A48804794
:2041E0000A480047FEE7FEE7FEE7FEE7FEE7FEE700F0004098BADCFEF800FF007856341261
:20420000D8010010D00F0010C95A0000FD5C000003460B439B0703D009E008C9121F08C08B
:20422000042AFAD203E00B780370401C491C521EF9D27047D2B201E00270401C491EFBD291
:2042400070470022F6E710B513460A4604461946FFF7F0FF204610BDF8B502464A40D40F17
:2042600042004B0052085B089A4202D20246084611464A0023D0C30D4A00DDB2120EAD1A8A
:20428000202D35DA49020126490AF6058A19002C00D0524220214F1B1146B9402A41101841
:2042A000C20D9A4221D0002C17D0012D08DCDA05801AD20F8019D207DBB200F031FBF8BD13
:2042C000DA05801A012340001B06C01880185A428018CA0F1043490007E04908C207114372
:2042E000DA05801A80194008801800F011FBF8BD61000122511A001BF7E70122D2075140A6
:20430000AAE70122D2075040A6E7024670B54A40D30FDB0740002DD04A002AD0010E140E86
:20432000000212020919400A520A8418E50104465443000A120A2E045043A4194219200C0D
:20434000C543AA18120C0125AD03521C521912047F39240400D0521C104301D44000491EC3
:20436000C2B20C06C0092018401C4008802A02D003E0002070BD40084000002900DA0020BB
:20438000184370BD70B502464A40D50F40004A00ED0740085208002814D0002A12D0C40DB1
:2043A000D30D41020120C0055202490A520AE41A091812187D34914201D3641C00E04900A7
:2043C000002C01DA002070BD0023914201D3891A0343400849000028F7D100290AD091427F
:2043E00002D10121C90705E0914201D2012101E00121C943E005C018401900F089FA70BD86
:20440000F0B507460846584087B0C00F049048000E46590040084908BC1A884105D23846A8
:2044200031461E4617460B4602465800400810434CD0300D039040055900400D490D0590F6
:20444000401A0290402872DA18030121000B09050843019004980092002805D00199524231
:204460000020884100920190029840210A1A0199009800F019FA05460C466B4607CB00F0CC
:2044800034FAC0197141039A0E0D0023D71756401A467A40164344D0049A002A2DD0029A1C
:2044A000012A039A15DC1205C01A914101263605001C7141D20F059ED20700930192029635
:2044C0002A46234600F072FA07B0F0BD38463146FAE71605224A0F46B218C01AB7410121D3
:2044E0000905001C4F4100187F41114618187941E20F10436D19644113E0E2076D081543D1
:204500006408C2071443039A01261205C01A91413605001C7141CE07400830434908C018C6
:2045200051412A46234600F034FACDE7FFE7049801224000C117121A00238B410498314653
:20454000C417381AA141EEE730B40124E407634030BC55E730B40124E407614030BC4FE701
:204560000000E0FFF0B51FB488B00B990998002448400999C00F490049080991C0070B99AB
:204580000090490049080B9109990898A64608431CD00B990A98084318D009980124400071
:2045A000420D4800410D099824050003000B204309900B980003000B20430B9050181C49C6
:2045C0004018002201901446104605E0002001460DB0F0BD032801DA034600E003239C4633
:2045E000C11A0AAE0AE05F0008ADED5B4F00F75B7D430027AA187C41491C5B1E6145F2DD88
:20460000410004AB5A522104120C0A43240C401C0828DFDB0198029000997046019100905C
:20462000059B049A0799069800F0C0F9D0E700000DFCFFFFF0B50C465C4085B0E40FE407F1
:2046400003944C000026640859009446490802460296224321D062460A431ED06200570D82
:204660004A000E032303550D012402462C492405781B1B0B360B40182343264361460090F4
:204680001C46501AB44103D30098401C009002E0921800985B41002803DA0020014605B01E
:2046A000F0BD0020012109050746864611E064461D46141BB54106D36546521BB341744622
:2046C00007430C43A646CD0740084908284392185B4105460D43EAD11046184313D06046A7
:2046E000194650407140084306D06046101AB34106D20122002306E000220123DB0702E027
:204700000122D2435310009874460105381C6141029C039D0019694100F03BF9BFE70000E5
:20472000FD030000C217C10F504010B54018CA079623002100F0F4F810BD10B5002296232F
:20474000114600F0EDF810BD0EB5C217C10F5040CA0740180021054B0293019200910A46C1
:204760000B4600F023F903B000BD000033040000C20F410040020123400ADB05D207090EA3
:20478000C0187F2901DA00207047962903DC9623591AC84001E096398840002AF4D040422D
:2047A0007047C20FD207400040080BD0C10D0723DB01C91840020905400A1143C208400781
:2047C00011437047002001467047CB0FDB07490010B5490802460A4307D00A0D07240903DB
:2047E000E401090B121B002A01DC002010BDC900440F0C43C100E018D205801800F088F89C
:2048000010BD00000122D207002800DB101A002900DB511A8842704770B50446002903D047
:2048200000202022012310E0002801D00020C043C046C0460DE02546D5408D4205D30D4673
:204840009540641B1D46954040191546521E002DF1DC214670BD000070B5002504462E4612
:20486000002911D0002C01DA01254442002901DA012649422046FFF7CFFFB54200D0404252
:20488000002D00D0494270BD002C02DA0121C90702E0002C00DD03490846C046C046214671
:2048A00070BD0000FFFFFF7F10B5202A04DB0146203A9140002010BD914020239C1A0346EF
:2048C000E3401943904010BD10B5202A04DB0846203AD040002110BD0B46D340D040202470
:2048E000A21A91400843194610BD10B5202A06DBCB170846203A1041C1170B4306E00B468C
:204900001341D0402024A21A91400843194610BD002904DA401C490001D14008400070472E
:2049200070B40024050C05D11024000402D1002921D01124050E01D100020834050F01D1E5
:204940000001241D850F01D18000A41C002801DB4000641C002908D020252E1B0D46F54094
:20496000A14000D001212943084301061B1B000ADB1D02D5002070BC7047DB0518188018EC
:204980000029F8DA401C4900F5D170BC40084000704710B5002B08DA0024401C61419218A8
:2049A0005B411A4301D14008400010BDF0B51FB482B005460C0003D0084609F045F902E09C
:2049C00009F042F920300246009021462846FFF76BFF049B059A04460F461843114308436F
:2049E00014D0184610431BD0009840210A1A18460599FFF769FF05460E46009A059904984D
:204A0000FFF752FF084305D0012004E02046394607B0F0BD0020C11705430E432C43374367
:204A200000990E986305401A7905E40A00220C43FD0A0A3002D500200146E9E7010510191A
:204A400069410C9C0D9D00196941FFF7A2FFDFE7B0B5074D68681F24044008D0054801689C
:204A6000002901D020468847286820432860B0BD0C7000403C03001070B50A4D6E6801249D
:204A8000204604F0C9FA002801D007480470022004F0C2FA002801D000F04CFF2868304334
:204AA000286070BD2CC00040FC080010B0B598490C78032C20D8974BD91C104A7C44247982
:204AC0006400A7440D0105090C490A1D133306E00A498A1C0B3302E008498A1D1B33194605
:204AE0001378FE241C401470421E9041C0010A787F23134018180870B0BDC0466F01001025
:204B0000F0B581B005285BD8800001A108588746294B00004F4B0000C14B0000C14B0000EA
:204B20009F4B0000B14B000047480368002200920120022101F006FA44490860002801D0BE
:204B400001F018FA00F03AFF00F040FB38E004F0CDFA00F07DF800F0BFFD00F081FF344D29
:204B6000287802282ED0012844D0002828D133480178012924D1002101703248007801284F
:204B800043D12848016802220A43026008200124214603F0DBFE2A4844702C703CE023488C
:204BA000012101701F48016802229143016007E01C48016802220A4302601B4800F09AFCC9
:204BC00001B0F0BD1B4E30681B4F3968081A00097C2803D8194800780128F1D108200024B1
:204BE000214603F0B3FE1648022141702C7038683060E5E70F4800680F490968081A8009AD
:204C00000528DDD302202870DAE70820002103F09DFEFE48022141700748006805490860DE
:204C2000CEE7C0463850004088130000D5010010020A0010040A00104C000010000A0010C0
:204C4000C0030010FC0900104C030010D801001080B500F063F800F001F880BDB0B5EA48E7
:204C6000017900293CD000210171ED480078811E02291BD3012834D0002831D12020E449C9
:204C80000A5C5006C30F244843709206120F027021228A5C2223C95C09028918FF235B017F
:204CA0000B401F21114059184180B0BD2120D84A105C0F23034018490B70C306DB0F4B70EB
:204CC0002223D35C5C0924022325525D02251540EA0212191B0218184009C0B21018488053
:204CE000B0BD2120CA49085C4207D20F0A4B5A7020228A5C92098407240FA2181A708006FB
:204D0000400F2222895C4909890208185880B0BD040400107A010010BC030010F0B581B091
:204D2000B8480078411E8841FFF7C0FEB64C2078002856D0B5480278511E8A41B4490E7902
:204D400007239E43B2184678B607760FB718B14A1771B14E34781025254335704C795471B5
:204D600032782024144334700022A7490A7084786506AD0FC1780907890E49190579AD012D
:204D80004919A34D69711F40E100C91929712F463178CF230B403370A04B197884790F2580
:204DA0002540447924016419BC7101240C401C70017A03240C40C1790907890E0919924C36
:204DC000407A800108185978F8718E480270F8200840587092480178002902D0027006F018
:204DE000E5F9A078002856D088480278511E8A4187490C7D07239C43A2184478A407640FF5
:204E0000A718844A1771844EB47810252543B5704C7D5471B27820241443B47000227A4961
:204E20008A7084786506AD0FC1780907890E49190579AD014919764D69751F40E100C919C2
:204E400029752F46B178CF230B40B370734B197984790F252540447924016419BC75012619
:204E600031401971017A03240C40C1790907890E0919654C407A800108185979F875614852
:204E80000270F8200840587165480178012902D0067006F08BF96078002857D05B48027821
:204EA000511E8A415A490C7B07239C43A2184478A407640FA718574A1771574E7478102543
:204EC000254375704C7B5471727820241443747000224D494A7084786506AD0FC1780907B2
:204EE000890E49190579AD014919494D69731F40E100C91929732F467178CF230B4073707D
:204F0000464B997884790F252540447924016419BC7301240C409C70017A03240C40C17926
:204F20000907890E0919384C407A80010818D978F87334480270F8200840D870384801787E
:204F4000022903D00221017006F030F9E078002856D02E480278511E8A412D4B21461C7F56
:204F600007239C43A2184478A407640FA718294A1771294EF47810252543F570244C647FA2
:204F80005471F27820241443F4700022CA7084786506AD0FC1780907890E49190579AD01F6
:204FA00049191B4D69771F40E100C91929772F46F178CF230B40F370184B997984790F2561
:204FC0002540447924016419BC7701240C409C71017A03252940C4792407A40E6118407A03
:204FE00080010818D979F87706480270F8200840D8710B480178032902D0057006F0D6F8E3
:2050000001B0F0BD2B0900102D090010C00300107A01001040030010340900106F0100102A
:2050200004040010411E884103490A6801239A43101808607047C04614900040F0B581B06A
:205040000246032108460092514307231C468C4010490D68A5430D60002425460646664371
:205060001F46B7400A68BA430A60F2B294400A6822430A606D1CECB2009A9442EED91B06C3
:205080000A689A430098400740091018086001B0F0BDC0462090004002490A6882430A60C9
:2050A0007047C046009000400C286CD8800001A108588746E9500000F3500000FD500000D3
:2050C00007510000115100001B510000255100002F51000039510000435100004D510000F8
:2050E0005751000061510000304800682649486070472E4840682449086070472B488068A3
:205100002149086170472948C0681F49C8637047264800691C4908637047244840691A494C
:2051200048617047214880691749086470471F48C0691549886070471C48006A1249886399
:2051400070471A48406A1049886170471748806A0D49C86170471548C06A0B4948647047D6
:2051600009480A4941670A4981670A49C1670A480A4901600A4941600A4981600A49C1608B
:2051800079210902016170470CF000401D1F37747C00FA007701EF028CF00040F804040B88
:2051A000040B0116FF2080100021403F0800800080B5002801D0044800E0024800F09AF9CB
:2051C00080BDC0468813000010270000B0B582B017481849016018490A6802231A430A6043
:2051E000414901601548016819430160082400252046294603F0AAFB114908794A791202D1
:205200001218684682800A784B781B029A188B78C9780902C918090489180091294603F0CF
:20522000D3FA2046294603F091FB02B0B0BDC046FC1000405A5A5A5A181000403850004044
:2052400071DE000070B543B2002B20D41F2404400123A340184C2360BFF34F8FBFF36F8F11
:20526000164C2360C0B28407E40EFF25A540144E80190326B0430668AE438907090EA14053
:2052800031430160002A01D00E48036070BD8207D20EFF2494400F230340083B0320834357
:2052A00004481D58A5438901C9B291402943195070BDC0461CED00E080E100E080E200E0FB
:2052C00000E400E000E100E004488168044A054B13600160044810607047C0463400FF00F6
:2052E000F800FF0055AA55AA785634127E4800887047C046B0B50C46054600F061FD28041E
:2053000002197A480068032100F002FEB0BDC04673490A78022A02D90020C0437047531C33
:205320000B709200891848600120704780B504A005490022134600F053FD6C49086080BD03
:2053400068616C74000000006953000065490A78012A02D90020C0437047531C0B7092005C
:205360008918486001207047F0B585B0032833D0012800D1A0E0002800D0A7E01F221004B6
:2053800055490B688343012084041B190B6012020B6893430B600A680F239A430A607022A9
:2053A000D2434B6913404B614B6903434B610B6913400B610A6902430A614D490B680022FE
:2053C00000927D21890000F0BDFD5349086000287CD000F0CFFD79E00C463D480126067069
:2053E0004D48006800F0CCFD0025284600F062FB0420214600F0D0FC36480560364A506CB1
:20540000B043506404963005516C014351640294200CC0B20390324F049840052E4D696CE7
:20542000014369646869402420433021884368612A4D2868A043286000260398314603F041
:2054400089FB286820432860234A506970218843506138780028049D08D03C1D354601CC28
:2054600080470543761C38788642F8D31D49487800280CD00878002809D000244C700E1D92
:2054800001CE8047641C174800788442F8D3002DC2D000240F4804600520029900F07CFCC8
:2054A000012000F007FB1C48006800F063FD084804700C48447009E00B48048800F080FCBD
:2054C0000A4800682204032100F022FD05B0F0BD220400101404001004C000400030004085
:2054E000CC0300100804001050010010180400104C03001080B5014607480068002801D099
:2055000000F016FD80BDC04680B503480068002801D000F013FD80BD1C040010BFF34F8F67
:20552000034804490160BFF34F8F00BFFDE7C0460CED00E00400FA05F0B581B006F043FD51
:20554000002801D1FFF7E0FF00200125344C154E2F464000215E305E401A3C2801DB00F007
:20556000E1FE01200021FA070F46F2D101200090C103002217467F003046F65B34464C40B1
:205580004B4BDC53DC19264BDF5BF61B4F40A7804E4026810646EC071546009FEBD101B004
:2055A000F0BDC04614070010F0B583B006F00BFD002801D1FFF7A8FF00200125164C174E93
:2055C0002F464000215E305E401A3C2801DB00F0A9FE01200021FA070F46F2D101200290CA
:2055E000C103002001904000E84A17183246365A234634464C40BC81094C245A4C403C82C4
:205600001C46185A301A16464840B882E807019D0298E8D103B0F0BD580600101807001071
:2056200054060010B0B50D4B1A78052907D00429144609D101248440E4B2144303E001256C
:2056400085401446AC431C70601E844150425041604002D1002000F0F9FEB0BDDC01001076
:2056600080B5052906D004290AD1C848827E0120104303E0C548807E01229043C34A90766E
:205680000020FFF7CFFF80BD80B5052906D004290AD1BE48827E0220104303E0BB48807E49
:2056A00002229043B94A90760120FFF7BBFF80BDB00C001070470000054800689249096858
:2056C000081A0449884201D80020704701207047040A00108713000010B51448017802298C
:2056E0000DD313490A68521C0A60124B9A4209D301220270002008600F49087002E00C48EC
:20570000002101600D48817803290ED30C4A13885B1C13809BB20B4CA34206D30023138099
:20572000D44A01231370491E817010BDD5010010B4030010C5090000F409001000040010E3
:205740004C0900108913000012480068002802D070480078704700207047C04680B50D483E
:205760000068002806D002F01DF90A2802D069480121017080BDC04680B504A004490022E8
:20578000012300F02DFB0349086080BD6C696E0099570000F8080010B0B59CB0052800D9E2
:2057A00085E0800001A108588746C046C5570000F9570000AF580000AF580000515800000C
:2057C00081580000574803680022009201242046214600F0B7FB54490860002801D000F0B0
:2057E000C9FB02F067FA01F08FFB5048FFF790FD4F48FFF7ABFD50E001F0DCFC02F04EFD91
:20580000464D2878002817D001A800F00BFA04460020287002A8E0210170642C0ADC01997A
:2058200002AD681C2246FEF7F3FC601C80B2294601F06CFA00F0F2F933480468314D287895
:20584000012836D1012002F023F90020287036E02F49002008702F4908700421022203F0DF
:2058600017FC2D4801680124214301602046214603F0C2FB062003212246FFF7E3FC16E053
:20588000012400252046294603F0B6FB062003212A46FFF7D7FC01F0F9FD02F0C5F81849CB
:2058A00008801848047018480068184908601CB0B0BD16480068201A80B202F0E9F8134862
:2058C000046002F06FF80A2801D0FFF71DFE104D287800280AD0FFF7EFFE002806D00024F3
:2058E0002C70FFF703FD2146FFF704FD02F09CF8034909888842DAD0094801210170D6E740
:20590000E8010010DE0100104C000010E00100103B090010FC0800102CC00040E9030010C2
:20592000F50800104C030010E4010010495700005D57000070470000BFF34F8F03480449D3
:205940000160BFF34F8F00BFFDE7C0460CED00E00400FA0580B50A488078002801D0FFF763
:20596000D3FD08488078002801D0FFF7CDFD0120C0030549098841400448018380BDC046FF
:2059800094080010C4080010A8090010B00C0010B0B5074DA868074C044008D00648016803
:2059A000002901D020468847286820432860B0BD5C600040FFFF7F00140A001070B582B0D2
:2059C00000240194009422496D46082320462A4602F0D0FD1F4A917A30391F48C1701F49BF
:2059E000CB780F261E40C6710B7A1E46413EF6B2032E01D3234600E0403B0372D37B0A26CE
:205A00005E43127C921970327F23134083706A79303A8271EA79303A4271EA781346413B2B
:205A2000DBB2032B01D3224600E0403A02714A7C332A0AD18A7C312A07D1CA7C392A04D1ED
:205A4000097D372901D10021417202B070BDC0460839000018400000C00300100040000029
:205A600080B504480178012903D10021017001F021F880BDCC0C001070B585480168491CAD
:205A80000160C34C2078002812D00025042661198A78521C8A704B78D2B29A4204D30020A7
:205AA0008870A05980472078361D6D1C8542EED370BDC046411E8841B3490A6801239A4368
:205AC000101808607047C046F0B581B0424A900805D00320824341484149FEF799FB414A9B
:205AE00041481060414E306801210091884330603068F021884330603068082738433060A2
:205B00003B4810603068C00702D07D20000200E0384831680906090F491CFEF77DFE9849EC
:205B20000860354800683548354901600025ECB22046FFF7B9FA6D1C0C2CF8D3294B2A4878
:205B4000186070680721884370607068384370600221C843F2680240F26032690240326183
:205B600072690A437261B1690140B161F1690140F161316A01403162F16A0140F162316BD6
:205B800001403163716B01407163194D1D601D494A68009C22434A607022D2434B681340EC
:205BA0004B600B6823430B600B6813400B601649164A8A610A68A2430A600A6802400A603C
:205BC0008D611349134A0A60134A13682343034013600D6001B0F0BDD8010000000000100C
:205BE000A0E10000FC1000405A5A5A5A0010004078563412006CDC0204008000FCF0004012
:205C00001032547614C0004000A000405555AAAAF800FF0055AA55AA0400FF00064800211F
:205C200001607047002801D002490160024800687047C046EA0100105002001010B51049BD
:205C40000869C0071BD0CA6801200243CA600D4A10700A680C490B689A180A600B4B9A4200
:205C60000DDB4B22D2000A4B1C68A4181C60094B587000200860C74801688918016010BD01
:205C80000C300040AA0C001014040010CC4C0000E40300100804001010B514484168490755
:205CA00003D5016804220A4302604168C9071BD0026801210A4302600E480468607800286D
:205CC00003D00B480078002804D00B480068026A0A430262616E20468847442141436018ED
:205CE000406D012100F06CFD10BDC04604900040DC030010A40C0010AC0C001041200002FB
:205D0000012103F08FF9FFF761FA00F0CBFD00F017F862B6FFF70AFB00F072FB03F028FD56
:205D2000FFF72AFD04A005490022022300F058F800F06EF8FCE7C04661707000014B000001
:205D400080B50F4800687D21C900FEF765FD401E010E0DD10B490C4A50600C4803680B40E2
:205D60000321890759180160002090600720106007480849FF2202320260416080BDC046BB
:205D800048000010FFFFFF0010E000E020ED00E0200A0010895F0000F0B581B00C4605465C
:205DA00000265A4FB85D002804D0B819C2692846214690472436B42EF4D101B0F0BDC046F6
:205DC000002052490A5C002A02D00A18002353702430B428F6D17047002141700120704746
:205DE00010B5002907D00020484B1C5C002C04D02430B428F9D1002010BDFF2402341C5205
:205E0000181800230362C1614360826010BDC046F0B583B05F4801683A4802688A4239D0A7
:205E20005C49096801607D20C00002900027504EF05D00282BD0F519A878012827D1A86868
:205E4000E968544A1268541A02994843FEF7E4FC84421CD3686800280BD00178002908D06E
:205E600029490860C2690120002421469047264804606878012808D1A86802994843FEF7BB
:205E8000CBFCE9684018E86001E00220A8701037502FCDD11D4D2F46083700262420704390
:205EA000295C002928D02C186078002818D00196651C1548046000941C34002602973968F3
:205EC0002268381F006890470837761C28788642F5D300200C49086028700C4D00AFD0CF85
:205EE000206A002808D008480460E2690220002421469047044804602437761C052ECDD127
:205F000003B0F0BD540200104C030010280A001010B54378022B02D90020C04310BD5C1C2A
:205F20004470DB00C01841608260012010BD0000184A12688160C2607047C046154909681E
:205F4000C1607047B0B50022094CA55C002D04D01032502AF9D1002207E00125A554A21823
:205F6000002494705070536091601046B0BDC046DC0A001001218170EE490968C160704743
:205F80000221817070470000EA480168491C01607047C0464C000010F0B59BB005460890E9
:205FA00009AC44212046FEF74CF90126267086488649874A00F040FB052121711A901F2030
:205FC000179016908348109083480F9083480D9083480C9083480B90834813901A2015901D
:205FE00082480E908248834A214600F051FBDE4908608148814907F093F98148009601906A
:20600000804C8149814B20463246079607F042FB7F48A0610094E04C7E4A7F4B2046314678
:2060200007F07EFC2846214607F08EFC7B487C4902277C4B3A4606F0ABFF7B480097019016
:206040007A4D7B497B4B28463A4606F02BFC7A4C7A497B4A204606F019F87A48E060002601
:206060000596049403956D4802907748019077480090E14C2046314632463B4607F07CFCFD
:206080000898214607F0A1FC7148724907F0EAFC243571482024069465492A46234607F0A6
:2060A0001DFD6E486E492A46234607F017FD684C2046694907F0C4FC2046684907F0C0FC28
:2060C000CD48214607F0ABFC66486749674B3A4606F05EFF664800970190664D6649674BD9
:2060E00028463A4606F0DEFB654C6649664A204605F0CCFF6548E060059604940395594854
:2061000002906348019063480090BC4C2046314632463B4607F030FC0898214607F055FC26
:206120005D484C4907F09EFC24355C4852492A46069C234607F0D2FC59485A492A4623469F
:2061400007F0CCFC544C2046544907F079FC2046534907F075FCA948214607F060FC5248C2
:20616000524A394607F060F8514800970190514D5149524B28463A4606F056FD504C5149B2
:20618000204606F0FDFA5048E060059604940395454802904D4801904D4800908D4C204660
:2061A000314632463B4607F0E7FB0898214607F00CFC2046079907F034FC4649114807F084
:2061C0009AF81BB0F0BDC046F002001038DF000078DE0000BE0000108C00001006DF0000F1
:2061E000D4DE000098DE00006E000010500000105802001080DE0000C809001088E1000087
:206200008C0900105009001076E10000AC0900105559000074E10000A80900101C0700105D
:20622000A8E000001407001054060010BC05001028E00000E40600102404001090DF0000C7
:206240006156000039550000B4070010BCE000005C06001051910000B406001084060010DA
:2062600048E0000068070010B2E0000018070010580600100806001068E00000FC060010D0
:20628000F0040010DCDF000089560000A9550000B8070010BEE0000070060010CC0600108D
:2062A0009C06001088E00000380800105C0800101C080010E8070010CAE0000020080010EB
:2062C000BC070010C0E00000B556000060080010D4E00000F4000010BD4908707047C046D5
:2062E000B0B5D0480124214607F044FBCE48214607F097FBCD48214607F093FBCC4D00211E
:20630000284607F08EFB284606F0C9FF284606F0C4FD284606F0A0FAC648214607F078FC60
:20632000B0BDC046AE48012101707047014800687047C0464C00001080B5A548007800281E
:2063400005D0A7480078002807D0012080BD642000BF401EFCD1002080BD9E480068C16D5D
:206360008847411E884180BDA40C001080B5B048012107F056FB80BD10B5AB480124214611
:2063800007F04FFBA948214607F04BFBA548214607F0F0FA10BDC0469009001080B502F04F
:2063A000A5FE8B48007800280CD08C480188491C018089B2042905D3002101808548006891
:2063C000016E884780BDC04680B59948002107F028FB80BD6408001010B593480024214607
:2063E00007F01FFB9148214607F01BFB8D48214607F0C0FA10BDC04694080010C4080010F7
:2064000010B50C480C4901600C4C204605F0C9FD2046FFF7C1FD0920032101242246FEF74B
:2064200011FF07A0084900222346FFF7D9FC6A49086010BD440000102D630000840C001092
:20644000746F75636800000019650000FE200840042807D1044801220270081F4142414124
:20646000024801707047C046000A0010FC090010F0B581B00C46054602F0E8FDFA49FB48A5
:206480000860234A1368022003431360136808261E431660FF231B0116689E4316601368C3
:2064A00004261E431660F34A0A601A4F3968802291433960396840229143396039682022C8
:2064C000914339603968814339600126F0032946FEF7A2F9F860002C0DD00020C043B8619B
:2064E0007869B0437861032001463246FEF7AAFE3868304309E07869304378610320002202
:206500000146FEF79FFE3868B043386001B0F0BD0C10004000300040B0B582B0002828D096
:206520000C460546401E012809D82948007800284CD028480068836D294622469847052D79
:206540002CD0042D42D125480021018024480170FFF7C6FE1E480078002805D01D480068AD
:20656000836D0421224698471A480068007B01212AE01C4803680022009201200146FFF76D
:20658000E1FC19490860002801D0FFF7F3FC1748FEF7BEFE1648FEF7D9FE17E0FEF7B4FF9D
:2065A0000D480068FFF718FC00F024F808480078002805D007480068836D0521224698472F
:2065C00004480068007B0021FFF752FF02B0B0BD30010010A40C0010AC0C0010A80C001078
:2065E000DD0300104C03001038030010396300009D63000010B50B480024214607F0BAF918
:206600000948214607F00DFA0848214607F009FA0748012107F005FA0648214607F0F8FA0E
:2066200010BDC0469009001094080010C408001064080010840C0010B0B50B884988090464
:20664000C91801629188D388148852880A4D85600A4DC5600A4D05610A4D45610A4D85615D
:206660000A4DC561002545601204121942621A04511881620060B0BD359B0000519D0000F9
:206680003D9E0000599F0000659F0000AD9A0000F0B585B000920F460546002408462146F7
:2066A00000F0E6F93846214602F05AFD3846214600F060F938460394214602F027FD2E46A9
:2066C0001036482230463946FDF7A2FD284668301822009F39460492FDF79AFDFFF726FEE9
:2066E000A86032483249334AEA652966686601242C80A86E68606C20285A0295A881788AF5
:20670000012801D02D4800E02B48029DA865284680300499FDF795FD82202C54287C0028DC
:2067200041D00321CF43039B019644215943029A5518297D002926D0039328461430049032
:2067400018350026042428680019C05D00F03AF8286801197918C97800290BD0005DFE21BA
:206760000140062904D10120052102F01DF801E000F028F80C34761C049800788642E2D332
:20678000019E3078039B5B1C8342CED300280AD0029C5434002520688168884744346D1CA9
:2067A00030788542F7D3029805B0F0BDE99F0000EF9F000021A900004DA4000015A000001E
:2067C00041607047B0B504281FD804460320062101F0EAFF60000D490C5C0818417820460E
:2067E00001F0E2FF0121A140094842680A43094B1A404468084D2C40A218426002688A43CE
:206800001A400168294089180160B0BD3CDF000004800040FF01000000FEFFFF80B50428A1
:206820000CD80322424306488318002901D0591C00E0991C0978805C01F0B6FF80BDC04697
:2068400046DF00002B482C49016009490A6801231A430A6000BF00BF0A689A430A6000BF25
:2068600000BF274901607047FC1000405A5A5A5A2C10004078563412B0B5074DA868074C71
:20688000044008D006484168002901D020468847286820432860B0BD5CB00040FFFF7F0005
:2068A000140A0010B0B51349134808601348026802231A430260124808601249124A8A6119
:2068C000012214020D6825430D600C681C430C604B680E4C1C400E4BE3184B600B691343C4
:2068E0000B614B6913434B610B6813430B608861B0BDC046FC1000405A5A5A5A14100040CE
:206900007856341200A000405555AAAA0000F0FFFFFF0300F0B583B0024600270297084667
:206920000838182821D80D46012421468140104801421AD0EE0802A8009211463246FDF7C4
