:1040000053573A312E30312E425F32363033323709
:104010005F333139375F303553573A454849534656
:104020004C2E312E33432E3035202020200000002E
:10403000FFFFFFFFFFFFFFFFFFFFFFFFFFFFFFFF90
:10404000FFFFFFFFFFFFFFFFFFFFFFFFFFFFFFFF80
:10405000FFFFFFFFFFFFFFFFFFFFFFFFFFFFFFFF70
:10406000FFFFFFFFFFFFFFFFFFFFFFFFFFFFFFFF60
:10407000FFFFFFFFFFFFFFFFFFFFFFFFFFFFFFFF50
:10408000FFFFFFFFFFFFFFFFFFFFFFFFFFFFFFFF40
:10409000FFFFFFFFFFFFFFFFFFFFFFFFFFFFFFFF30
:1040A000FFFFFFFFFFFFFFFFFFFFFFFFFFFFFFFF20
:1040B000FFFFFFFFFFFFFFFFFFFFFFFFFFFFFFFF10
:1040C000FFFFFFFFFFFFFFFFFFFFFFFFFFFFFFFF00
:1040D000FFFFFFFFFFFFFFFFFFFFFFFFFFFFFFFFF0
:1040E000FFFFFFFFFFFFFFFFFFFFFFFFFFFFFFFFE0
:1040F000FFFFFFFFFFFFFFFFFFFFFFFFFFFFFFFFD0
:10410000D00F0010C1410000395900001D550000BA
:10411000000000000000000000000000000000009F
:10412000000000000000000000000000E941000065
:104130000000000000000000EB410000795A000080
:10414000C9520000514A0000EF4100003D5C0000F0
:10415000EF41000091590000794A0000EF41000052
:10416000EF410000995C000079680000EF41000019
:10417000EF410000EF410000EF410000EF4100007F
:10418000EF410000EF410000EF410000EF4100006F
:10419000EF410000EF410000EF410000EF4100005F
:1041A000EF410000EF410000EF410000EF4100004F
:1041B000EF410000EF410000EF410000EF4100003F
:1041C00072B60B480B4901600B480C490160002096
:1041D0000B490C4A0860091D9142FBD30A488047ED
:1041E0000A480047FEE7FEE7FEE7FEE7FEE7FEE7D8
:1041F00000F0004098BADCFEF800FF007856341258
:10420000D8010010D00F0010C95A0000FD5C00005A
:1042100003460B439B0703D009E008C9121F08C0DF
:10422000042AFAD203E00B780370401C491C521E8A
:10423000F9D27047D2B201E00270401C491EFBD295
:1042400070470022F6E710B513460A4604461946A1
:10425000FFF7F0FF204610BDF8B502464A40D40FE4
:1042600042004B0052085B089A4202D202460846BE
:1042700011464A0023D0C30D4A00DDB2120EAD1A1A
:10428000202D35DA49020126490AF6058A19002C43
:1042900000D0524220214F1B1146B9402A4110182C
:1042A000C20D9A4221D0002C17D0012D08DCDA056E
:1042B000801AD20F8019D207DBB200F031FBF8BDB3
:1042C000DA05801A012340001B06C01880185A42E4
:1042D0008018CA0F1043490007E04908C20711437C
:1042E000DA05801A80194008801800F011FBF8BD2B
:1042F00061000122511A001BF7E70122D207514049
:10430000AAE70122D2075040A6E7024670B54A400C
:10431000D30FDB0740002DD04A002AD0010E140E27
:10432000000212020919400A520A8418E5010446E3
:104330005443000A120A2E045043A4194219200CB7
:10434000C543AA18120C0125AD03521C52191204C0
:104350007F39240400D0521C104301D44000491E70
:10436000C2B20C06C0092018401C4008802A02D0A6
:1043700003E0002070BD40084000002900DA002062
:10438000184370BD70B502464A40D50F40004A0040
:10439000ED0740085208002814D0002A12D0C40D9E
:1043A000D30D41020120C0055202490A520AE41A03
:1043B000091812187D34914201D3641C00E04900B1
:1043C000002C01DA002070BD0023914201D3891A2C
:1043D0000343400849000028F7D100290AD0914240
:1043E00002D10121C90705E0914201D2012101E07A
:1043F0000121C943E005C018401900F089FA70BDD9
:10440000F0B507460846584087B0C00F04904800F2
:104410000E46590040084908BC1A884105D2384662
:1044200031461E4617460B460246580040081043C8
:104430004CD0300D039040055900400D490D0590BA
:10444000401A0290402872DA18030121000B090576
:104450000843019004980092002805D00199524227
:104460000020884100920190029840210A1A019987
:10447000009800F019FA05460C466B4607CB00F091
:1044800034FAC0197141039A0E0D0023D717564014
:104490001A467A40164344D0049A002A2DD0029A34
:1044A000012A039A15DC1205C01A9141012636052E
:1044B000001C7141D20F059ED20700930192029613
:1044C0002A46234600F072FA07B0F0BD384631465E
:1044D000FAE71605224A0F46B218C01AB741012161
:1044E0000905001C4F4100187F41114618187941F9
:1044F000E20F10436D19644113E0E2076D081543A4
:104500006408C2071443039A01261205C01A914198
:104510003605001C7141CE07400830434908C018D9
:1045200051412A46234600F034FACDE7FFE70498CC
:1045300001224000C117121A00238B410498314612
:10454000C417381AA141EEE730B40124E4076340F0
:1045500030BC55E730B40124E407614030BC4FE77C
:104560000000E0FFF0B51FB488B00B990998002453
:1045700048400999C00F490049080991C0070B99A3
:104580000090490049080B9109990898A6460843EC
:104590001CD00B990A98084318D0099801244000B0
:1045A000420D4800410D099824050003000B2043EB
:1045B00009900B980003000B20430B9050181C49E6
:1045C0004018002201901446104605E000200146E4
:1045D0000DB0F0BD032801DA034600E003239C463A
:1045E000C11A0AAE0AE05F0008ADED5B4F00F75B51
:1045F0007D430027AA187C41491C5B1E6145F2DD02
:10460000410004AB5A522104120C0A43240C401CF2
:104610000828DFDB01980290009970460191009014
:10462000059B049A0799069800F0C0F9D0E70000AE
:104630000DFCFFFFF0B50C465C4085B0E40FE407CD
:1046400003944C0000266408590094464908024629
:104650000296224321D062460A431ED06200570DC3
:104660004A000E032303550D012402462C4924055C
:10467000781B1B0B360B40182343264361460090E2
:104680001C46501AB44103D30098401C009002E02D
:10469000921800985B41002803DA0020014605B01B
:1046A000F0BD0020012109050746864611E0644659
:1046B0001D46141BB54106D36546521BB3417446D3
:1046C00007430C43A646CD074008490828439218E3
:1046D0005B4105460D43EAD11046184313D06046AE
:1046E000194650407140084306D06046101AB34145
:1046F00006D20122002306E000220123DB0702E0AC
:104700000122D2435310009874460105381C6141C0
:10471000029C039D0019694100F03BF9BFE70000CE
:10472000FD030000C217C10F504010B54018CA0762
:104730009623002100F0F4F810BD10B50022962356
:10474000114600F0EDF810BD0EB5C217C10F504074
:10475000CA0740180021054B0293019200910A46B6
:104760000B4600F023F903B000BD00003304000045
:10477000C20F410040020123400ADB05D207090EA7
:10478000C0187F2901DA00207047962903DC9623A0
:10479000591AC84001E096398840002AF4D04042B6
:1047A0007047C20FD207400040080BD0C10D07234D
:1047B000DB01C91840020905400A1143C20840073D
:1047C00011437047002001467047CB0FDB074900BB
:1047D00010B5490802460A4307D00A0D0724090309
:1047E000E401090B121B002A01DC002010BDC900E6
:1047F000440F0C43C100E018D205801800F088F87F
:1048000010BD00000122D207002800DB101A002989
:1048100000DB511A8842704770B50446002903D066
:1048200000202022012310E0002801D00020C043F6
:10483000C046C0460DE02546D5408D4205D30D4605
:104840009540641B1D46954040191546521E002D8B
:10485000F1DC214670BD000070B5002504462E46EF
:10486000002911D0002C01DA01254442002901DA87
:10487000012649422046FFF7CFFFB54200D0404213
:10488000002D00D0494270BD002C02DA0121C90779
:1048900002E0002C00DD03490846C046C046214620
:1048A00070BD0000FFFFFF7F10B5202A04DB01462A
:1048B000203A9140002010BD914020239C1A0346CD
:1048C000E3401943904010BD10B5202A04DB084690
:1048D000203AD040002110BD0B46D340D0402024C8
:1048E000A21A91400843194610BD10B5202A06DBD4
:1048F000CB170846203A1041C1170B4306E00B4680
:104900001341D0402024A21A91400843194610BDFB
:10491000002904DA401C490001D1400840007047DA
:1049200070B40024050C05D11024000402D1002924
:1049300021D01124050E01D100020834050F01D148
:104940000001241D850F01D18000A41C002801DB7B
:104950004000641C002908D020252E1B0D46F54080
:10496000A14000D001212943084301061B1B000A76
:10497000DB1D02D5002070BC7047DB0518188018BD
:104980000029F8DA401C4900F5D170BC400840000D
:10499000704710B5002B08DA0024401C61419218C2
:1049A0005B411A4301D14008400010BDF0B51FB46F
:1049B00082B005460C0003D0084609F045F902E034
:1049C00009F042F920300246009021462846FFF7C0
:1049D0006BFF049B059A04460F4618431143084396
:1049E00014D0184610431BD0009840210A1A1846CC
:1049F0000599FFF769FF05460E46009A0599049848
:104A0000FFF752FF084305D0012004E02046394655
:104A100007B0F0BD0020C11705430E432C433743B8
:104A200000990E986305401A7905E40A00220C43A8
:104A3000FD0A0A3002D500200146E9E701051019F8
:104A400069410C9C0D9D00196941FFF7A2FFDFE74A
:104A5000B0B5074D68681F24044008D005480168B8
:104A6000002901D020468847286820432860B0BD2F
:104A70000C7000403C03001070B50A4D6E680124B4
:104A8000204604F0C9FA002801D00748047002202B
:104A900004F0C2FA002801D000F04CFF286830432F
:104AA000286070BD2CC00040FC080010B0B59849CB
:104AB0000C78032C20D8974BD91C104A7C442479BD
:104AC0006400A7440D0105090C490A1D133306E0D3
:104AD0000A498A1C0B3302E008498A1D1B33194618
:104AE0001378FE241C401470421E9041C0010A78C5
:104AF0007F23134018180870B0BDC0466F01001026
:104B0000F0B581B005285BD8800001A10858874620
:104B1000294B00004F4B0000C14B0000C14B00006F
:104B20009F4B0000B14B00004748036800220092F1
:104B30000120022101F006FA44490860002801D052
:104B400001F018FA00F03AFF00F040FB38E004F002
:104B5000CDFA00F07DF800F0BFFD00F081FF344D8C
:104B6000287802282ED0012844D0002828D13348A4
:104B70000178012924D100210170324800780128F0
:104B800043D12848016802220A4302600820012418
:104B9000214603F0DBFE2A4844702C703CE0234899
:104BA000012101701F48016802229143016007E062
:104BB0001C48016802220A4302601B4800F09AFC6C
:104BC00001B0F0BD1B4E30681B4F3968081A000950
:104BD0007C2803D8194800780128F1D10820002446
:104BE000214603F0B3FE1648022141702C7038684C
:104BF0003060E5E70F4800680F490968081A800926
:104C00000528DDD302202870DAE70820002103F010
:104C10009DFEFE4802214170074800680549086072
:104C2000CEE7C0463850004088130000D501001080
:104C3000020A0010040A00104C000010000A0010C4
:104C4000C0030010FC0900104C030010D801001034
:104C500080B500F063F800F001F880BDB0B5EA4817
:104C6000017900293CD000210171ED480078811EB6
:104C700002291BD3012834D0002831D12020E44957
:104C80000A5C5006C30F244843709206120F02704C
:104C900021228A5C2223C95C09028918FF235B0157
:104CA0000B401F21114059184180B0BD2120D84A26
:104CB000105C0F23034018490B70C306DB0F4B70C9
:104CC0002223D35C5C0924022325525D0225154072
:104CD000EA0212191B0218184009C0B210184880C5
:104CE000B0BD2120CA49085C4207D20F0A4B5A7056
:104CF00020228A5C92098407240FA2181A70800669
:104D0000400F2222895C4909890208185880B0BDE9
:104D1000040400107A010010BC030010F0B581B04B
:104D2000B8480078411E8841FFF7C0FEB64C207895
:104D3000002856D0B5480278511E8A41B4490E79F0
:104D400007239E43B2184678B607760FB718B14AC4
:104D50001771B14E34781025254335704C79547154
:104D600032782024144334700022A7490A708478D2
:104D70006506AD0FC1780907890E49190579AD019E
:104D80004919A34D69711F40E100C91929712F46C6
:104D90003178CF230B403370A04B197884790F25DD
:104DA0002540447924016419BC7101240C401C7015
:104DB000017A03240C40C1790907890E0919924C24
:104DC000407A800108185978F8718E480270F820EE
:104DD0000840587092480178002902D0027006F00D
:104DE000E5F9A078002856D088480278511E8A41FB
:104DF00087490C7D07239C43A2184478A407640FBD
:104E0000A718844A1771844EB47810252543B570CD
:104E10004C7D5471B27820241443B47000227A4936
:104E20008A7084786506AD0FC1780907890E491923
:104E30000579AD014919764D69751F40E100C91921
:104E400029752F46B178CF230B40B370734B197976
:104E500084790F252540447924016419BC75012605
:104E600031401971017A03240C40C1790907890E78
:104E70000919654C407A800108185979F87561481C
:104E80000270F8200840587165480178012902D065
:104E9000067006F08BF96078002857D05B480278DE
:104EA000511E8A415A490C7B07239C43A21844781F
:104EB000A407640FA718574A1771574E7478102526
:104EC000254375704C7B54717278202414437470A0
:104ED00000224D494A7084786506AD0FC1780907F4
:104EE000890E49190579AD014919494D69731F406A
:104EF000E100C91929732F467178CF230B407370D5
:104F0000464B997884790F2525404479240164190A
:104F1000BC7301240C409C70017A03240C40C179BD
:104F20000907890E0919384C407A80010818D97888
:104F3000F87334480270F8200840D8703848017877
:104F4000022903D00221017006F030F9E078002830
:104F500056D02E480278511E8A412D4B21461C7F87
:104F600007239C43A2184478A407640FA718294A72
:104F70001771294EF47810252543F570244C647F71
:104F80005471F27820241443F4700022CA7084789B
:104F90006506AD0FC1780907890E49190579AD017C
:104FA00049191B4D69771F40E100C91929772F4620
:104FB000F178CF230B40F370184B997984790F2542
:104FC0002540447924016419BC7701240C409C716C
:104FD000017A03252940C4792407A40E6118407A78
:104FE00080010818D979F87706480270F82008403F
:104FF000D8710B480178032902D0057006F0D6F865
:1050000001B0F0BD2B0900102D090010C0030010E5
:105010007A01001040030010340900106F010010E5
:1050200004040010411E884103490A6801239A4381
:10503000101808607047C04614900040F0B581B069
:105040000246032108460092514307231C468C4028
:1050500010490D68A5430D600024254606466643A9
:105060001F46B7400A68BA430A60F2B294400A6821
:1050700022430A606D1CECB2009A9442EED91B06E2
:105080000A689A430098400740091018086001B068
:10509000F0BDC0462090004002490A6882430A6081
:1050A0007047C046009000400C286CD8800001A1D9
:1050B00008588746E9500000F3500000FD500000FA
:1050C00007510000115100001B5100002551000044
:1050D0002F51000039510000435100004D51000094
:1050E000575100006151000030480068264948606F
:1050F00070472E4840682449086070472B488068F4
:105100002149086170472948C0681F49C863704732
:10511000264800691C4908637047244840691A49B9
:1051200048617047214880691749086470471F48E3
:10513000C0691549886070471C48006A1249886335
:1051400070471A48406A1049886170471748806A5A
:105150000D49C86170471548C06A0B4948647047DB
:1051600009480A4941670A4981670A49C1670A48EB
:105170000A4901600A4941600A4981600A49C160DF
:1051800079210902016170470CF000401D1F37743E
:105190007C00FA007701EF028CF00040F804040B69
:1051A000040B0116FF2080100021403F0800800002
:1051B00080B5002801D0044800E0024800F09AF9C8
:1051C00080BDC0468813000010270000B0B582B033
:1051D00017481849016018490A6802231A430A60EF
:1051E0004149016015480168194301600824002500
:1051F0002046294603F0AAFB114908794A79120290
:105200001218684682800A784B781B029A188B78AD
:10521000C9780902C918090489180091294603F0C0
:10522000D3FA2046294603F091FB02B0B0BDC04638
:10523000FC1000405A5A5A5A18100040385000408A
:1052400071DE000070B543B2002B20D41F2404404F
:105250000123A340184C2360BFF34F8FBFF36F8F20
:10526000164C2360C0B28407E40EFF25A540144EFF
:1052700080190326B0430668AE438907090EA14092
:1052800031430160002A01D00E48036070BD8207DF
:10529000D20EFF2494400F230340083B0320834396
:1052A00004481D58A5438901C9B2914029431950AA
:1052B00070BDC0461CED00E080E100E080E200E04F
:1052C00000E400E000E100E004488168044A054B86
:1052D00013600160044810607047C0463400FF004E
:1052E000F800FF0055AA55AA785634127E48008867
:1052F0007047C046B0B50C46054600F061FD280475
:1053000002197A480068032100F002FEB0BDC046D1
:1053100073490A78022A02D90020C0437047531CFF
:105320000B709200891848600120704780B504A076
:1053300005490022134600F053FD6C49086080BD0A
:1053400068616C74000000006953000065490A78C8
:10535000012A02D90020C0437047531C0B709200F1
:105360008918486001207047F0B585B0032833D014
:10537000012800D1A0E0002800D0A7E01F221004DF
:1053800055490B688343012084041B190B601202EA
:105390000B6893430B600A680F239A430A607022DC
:1053A000D2434B6913404B614B6903434B610B691B
:1053B00013400B610A6902430A614D490B680022E0
:1053C00000927D21890000F0BDFD5349086000284E
:1053D0007CD000F0CFFD79E00C463D4801260670F8
:1053E0004D48006800F0CCFD0025284600F062FB27
:1053F0000420214600F0D0FC36480560364A506C47
:10540000B043506404963005516C014351640294DA
:10541000200CC0B20390324F049840052E4D696CA9
:1054200001436964686940242043302188436861EE
:105430002A4D2868A043286000260398314603F0CF
:1054400089FB286820432860234A506970218843DB
:10545000506138780028049D08D03C1D354601CCA9
:1054600080470543761C38788642F8D31D49487832
:1054700000280CD00878002809D000244C700E1D9C
:1054800001CE8047641C174800788442F8D3002D71
:10549000C2D000240F4804600520029900F07CFC73
:1054A000012000F007FB1C48006800F063FD08487D
:1054B00004700C48447009E00B48048800F080FC3C
:1054C0000A4800682204032100F022FD05B0F0BD67
:1054D000220400101404001004C0004000300040FA
:1054E000CC03001008040010500100101804001034
:1054F0004C03001080B5014607480068002801D021
:1055000000F016FD80BDC04680B503480068002845
:1055100001D000F013FD80BD1C040010BFF34F8FBD
:10552000034804490160BFF34F8F00BFFDE7C04649
:105530000CED00E00400FA05F0B581B006F043FD83
:10554000002801D1FFF7E0FF00200125344C154E63
:105550002F464000215E305E401A3C2801DB00F0FF
:10556000E1FE01200021FA070F46F2D10120009050
:10557000C103002217467F003046F65B34464C409C
:105580004B4BDC53DC19264BDF5BF61B4F40A780EF
:105590004E4026810646EC071546009FEBD101B030
:1055A000F0BDC04614070010F0B583B006F00BFD47
:1055B000002801D1FFF7A8FF00200125164C174E47
:1055C0002F464000215E305E401A3C2801DB00F08F
:1055D000A9FE01200021FA070F46F2D10120029016
:1055E000C103002001904000E84A17183246365A9D
:1055F000234634464C40BC81094C245A4C403C82E2
:105600001C46185A301A16464840B882E807019DD1
:105610000298E8D103B0F0BD58060010180700103A
:1056200054060010B0B50D4B1A78052907D004298F
:10563000144609D101248440E4B2144303E0012557
:1056400085401446AC431C70601E8441504250415A
:10565000604002D1002000F0F9FEB0BDDC01001076
:1056600080B5052906D004290AD1C848827E0120C8
:10567000104303E0C548807E01229043C34A9076E0
:105680000020FFF7CFFF80BD80B5052906D0042993
:105690000AD1BE48827E0220104303E0BB48807ED0
:1056A00002229043B94A90760120FFF7BBFF80BDEC
:1056B000B00C001070470000054800689249096866
:1056C000081A0449884201D8002070470120704719
:1056D000040A00108713000010B51448017802294D
:1056E0000DD313490A68521C0A60124B9A4209D31F
:1056F00001220270002008600F49087002E00C4887
:10570000002101600D48817803290ED30C4A1388CB
:105710005B1C13809BB20B4CA34206D30023138067
:10572000D44A01231370491E817010BDD5010010A9
:10573000B4030010C5090000F409001000040010B3
:105740004C0900108913000012480068002802D09C
:1057500070480078704700207047C04680B50D48FB
:105760000068002806D002F01DF90A2802D0694816
:105770000121017080BDC04680B504A0044900220B
:10578000012300F02DFB0349086080BD6C696E00A9
:1057900099570000F8080010B0B59CB0052800D952
:1057A00085E0800001A108588746C046C557000023
:1057B000F9570000AF580000AF58000051580000E2
:1057C00081580000574803680022009201242046B7
:1057D000214600F0B7FB54490860002801D000F0D2
:1057E000C9FB02F067FA01F08FFB5048FFF790FD0C
:1057F0004F48FFF7ABFD50E001F0DCFC02F04EFD3E
:10580000464D2878002817D001A800F00BFA04466E
:105810000020287002A8E0210170642C0ADC0199A4
:1058200002AD681C2246FEF7F3FC601C80B22946DC
:1058300001F06CFA00F0F2F933480468314D287831
:10584000012836D1012002F023F90020287036E02B
:105850002F49002008702F4908700421022203F00C
:1058600017FC2D4801680124214301602046214690
:1058700003F0C2FB062003212246FFF7E3FC16E0FB
:10588000012400252046294603F0B6FB062003210B
:105890002A46FFF7D7FC01F0F9FD02F0C5F81849D8
:1058A00008801848047018480068184908601CB03F
:1058B000B0BD16480068201A80B202F0E9F813481B
:1058C000046002F06FF80A2801D0FFF71DFE104DAA
:1058D000287800280AD0FFF7EFFE002806D0002421
:1058E0002C70FFF703FD2146FFF704FD02F09CF842
:1058F000034909888842DAD0094801210170D6E7B6
:10590000E8010010DE0100104C000010E001001062
:105910003B090010FC0800102CC00040E9030010F7
:10592000F50800104C030010E40100104957000076
:105930005D57000070470000BFF34F8F03480449D4
:105940000160BFF34F8F00BFFDE7C0460CED00E0E4
:105950000400FA0580B50A488078002801D0FFF7D6
:10596000D3FD08488078002801D0FFF7CDFD012045
:10597000C0030549098841400448018380BDC046F1
:1059800094080010C4080010A8090010B00C001002
:10599000B0B5074DA868074C044008D00648016818
:1059A000002901D020468847286820432860B0BDE0
:1059B0005C600040FFFF7F00140A001070B582B0E9
:1059C00000240194009422496D46082320462A466B
:1059D00002F0D0FD1F4A917A30391F48C1701F492B
:1059E000CB780F261E40C6710B7A1E46413EF6B29A
:1059F000032E01D3234600E0403B0372D37B0A26EB
:105A00005E43127C921970327F23134083706A794F
:105A1000303A8271EA79303A4271EA781346413B72
:105A2000DBB2032B01D3224600E0403A02714A7CEC
:105A3000332A0AD18A7C312A07D1CA7C392A04D177
:105A4000097D372901D10021417202B070BDC046E5
:105A50000839000018400000C0030010004000009A
:105A600080B504480178012903D10021017001F0BB
:105A700021F880BDCC0C001070B585480168491C28
:105A80000160C34C2078002812D00025042661193B
:105A90008A78521C8A704B78D2B29A4204D3002082
:105AA0008870A05980472078361D6D1C8542EED342
:105AB00070BDC046411E8841B3490A6801239A431C
:105AC000101808607047C046F0B581B0424A90088F
:105AD00005D00320824341484149FEF799FB414AE2
:105AE00041481060414E3068012100918843306088
:105AF0003068F021884330603068082738433060D0
:105B00003B4810603068C00702D07D20000200E0F2
:105B1000384831680906090F491CFEF77DFE98498F
:105B20000860354800683548354901600025ECB209
:105B30002046FFF7B9FA6D1C0C2CF8D3294B2A48E4
:105B4000186070680721884370607068384370601F
:105B50000221C843F2680240F260326902403261B9
:105B600072690A437261B1690140B161F169014032
:105B7000F161316A01403162F16A0140F162316BD9
:105B800001403163716B01407163194D1D601D4906
:105B90004A68009C22434A607022D2434B681340FB
:105BA0004B600B6823430B600B6813400B60164976
:105BB000164A8A610A68A2430A600A6802400A60BB
:105BC0008D611349134A0A60134A13682343034043
:105BD00013600D6001B0F0BDD8010000000000109E
:105BE000A0E10000FC1000405A5A5A5A0010004030
:105BF00078563412006CDC0204008000FCF0004097
:105C00001032547614C0004000A000405555AAAA96
:105C1000F800FF0055AA55AA0400FF00064800211D
:105C200001607047002801D0024901600248006805
:105C30007047C046EA0100105002001010B510492C
:105C40000869C0071BD0CA6801200243CA600D4A18
:105C500010700A680C490B689A180A600B4B9A423C
:105C60000DDB4B22D2000A4B1C68A4181C60094BA8
:105C7000587000200860C74801688918016010BD8D
:105C80000C300040AA0C001014040010CC4C000092
:105C9000E40300100804001010B5144841684907D7
:105CA00003D5016804220A4302604168C9071BD07A
:105CB000026801210A4302600E48046860780028E7
:105CC00003D00B480078002804D00B480068026A13
:105CD0000A430262616E20468847442141436018AE
:105CE000406D012100F06CFD10BDC04604900040E5
:105CF000DC030010A40C0010AC0C001041200002CA
:105D0000012103F08FF9FFF761FA00F0CBFD00F0FD
:105D100017F862B6FFF70AFB00F072FB03F028FDEC
:105D2000FFF72AFD04A005490022022300F058F8DD
:105D300000F06EF8FCE7C04661707000014B000097
:105D400080B50F4800687D21C900FEF765FD401E43
:105D5000010E0DD10B490C4A50600C4803680B40F2
:105D60000321890759180160002090600720106006
:105D700007480849FF2202320260416080BDC046E8
:105D800048000010FFFFFF0010E000E020ED00E001
:105D9000200A0010895F0000F0B581B00C4605466E
:105DA00000265A4FB85D002804D0B819C2692846A9
:105DB000214690472436B42EF4D101B0F0BDC04640
:105DC000002052490A5C002A02D00A1800235370AE
:105DD0002430B428F6D1704700214170012070476B
:105DE00010B5002907D00020484B1C5C002C04D0C3
:105DF0002430B428F9D1002010BDFF2402341C52F5
:105E0000181800230362C1614360826010BDC04660
:105E1000F0B583B05F4801683A4802688A4239D0D9
:105E20005C49096801607D20C00002900027504E47
:105E3000F05D00282BD0F519A878012827D1A86893
:105E4000E968544A1268541A02994843FEF7E4FC80
:105E500084421CD3686800280BD00178002908D040
:105E600029490860C269012000242146904726483C
:105E700004606878012808D1A86802994843FEF7B1
:105E8000CBFCE9684018E86001E00220A8701037F8
:105E9000502FCDD11D4D2F460837002624207043AA
:105EA000295C002928D02C186078002818D0019689
:105EB000651C1548046000941C340026029739685C
:105EC0002268381F006890470837761C2878864279
:105ED000F5D300200C49086028700C4D00AFD0CFDE
:105EE000206A002808D008480460E26902200024E3
:105EF00021469047044804602437761C052ECDD1F6
:105F000003B0F0BD540200104C030010280A00102A
:105F100010B54378022B02D90020C04310BD5C1C91
:105F20004470DB00C01841608260012010BD000099
:105F3000184A12688160C2607047C04615490968F6
:105F4000C1607047B0B50022094CA55C002D04D09B
:105F50001032502AF9D1002207E00125A554A218D9
:105F6000002494705070536091601046B0BDC046DC
:105F7000DC0A001001218170EE490968C160704798
:105F80000221817070470000EA480168491C0160E5
:105F90007047C0464C000010F0B59BB00546089015
:105FA00009AC44212046FEF74CF9012626708648AC
:105FB0008649874A00F040FB052121711A901F2075
:105FC000179016908348109083480F9083480D9047
:105FD00083480C9083480B90834813901A201590A7
:105FE00082480E908248834A214600F051FBDE49E8
:105FF00008608148814907F093F981480096019033
:10600000804C8149814B20463246079607F042FB7F
:106010007F48A0610094E04C7E4A7F4B2046314689
:1060200007F07EFC2846214607F08EFC7B487C4921
:1060300002277C4B3A4606F0ABFF7B480097019065
:106040007A4D7B497B4B28463A4606F02BFC7A4C2E
:106050007A497B4A204606F019F87A48E060002623
:106060000596049403956D4802907748019077480F
:106070000090E14C2046314632463B4607F07CFC1E
:106080000898214607F0A1FC7148724907F0EAFC24
:10609000243571482024069465492A46234607F092
:1060A0001DFD6E486E492A46234607F017FD684CD1
:1060B0002046694907F0C4FC2046684907F0C0FC47
:1060C000CD48214607F0ABFC66486749674B3A4626
:1060D00006F05EFF664800970190664D6649674B83
:1060E00028463A4606F0DEFB654C6649664A20467D
:1060F00005F0CCFF6548E060059604940395594887
:1061000002906348019063480090BC4C20463146A1
:1061100032463B4607F030FC0898214607F055FC14
:106120005D484C4907F09EFC24355C4852492A469C
:10613000069C234607F0D2FC59485A492A46234672
:1061400007F0CCFC544C2046544907F079FC20461B
:10615000534907F075FCA948214607F060FC5248F6
:10616000524A394607F060F8514800970190514D66
:106170005149524B28463A4606F056FD504C51497B
:10618000204606F0FDFA5048E06005960494039519
:10619000454802904D4801904D4800908D4C204656
:1061A000314632463B4607F0E7FB0898214607F0A8
:1061B0000CFC2046079907F034FC4649114807F0CB
:1061C0009AF81BB0F0BDC046F002001038DF0000A6
:1061D00078DE0000BE0000108C00001006DF00001A
:1061E000D4DE000098DE00006E00001050000010A9
:1061F0005802001080DE0000C809001088E100008D
:106200008C0900105009001076E10000AC09001064
:106210005559000074E10000A80900101C07001087
:10622000A8E000001407001054060010BC05001080
:1062300028E00000E40600102404001090DF0000B5
:106240006156000039550000B4070010BCE00000A2
:106250005C06001051910000B40600108406001086
:1062600048E0000068070010B2E0000018070010C6
:10627000580600100806001068E00000FC06001038
:10628000F0040010DCDF000089560000A955000072
:10629000B8070010BEE0000070060010CC06001029
:1062A0009C06001088E00000380800105C08001010
:1062B0001C080010E8070010CAE0000020080010C9
:1062C000BC070010C0E00000B556000060080010D8
:1062D000D4E00000F4000010BD4908707047C046CB
:1062E000B0B5D0480124214607F044FBCE482146F2
:1062F00007F097FBCD48214607F093FBCC4D0021DA
:10630000284607F08EFB284606F0C9FF284606F00F
:10631000C4FD284606F0A0FAC648214607F078FCDE
:10632000B0BDC046AE480121017070470148006809
:106330007047C0464C00001080B5A5480078002882
:1063400005D0A7480078002807D0012080BD642030
:1063500000BF401EFCD1002080BD9E480068C16D7A
:106360008847411E884180BDA40C001080B5B0480C
:10637000012107F056FB80BD10B5AB480124214632
:1063800007F04FFBA948214607F04BFBA5482146E3
:1063900007F0F0FA10BDC0469009001080B502F079
:1063A000A5FE8B48007800280CD08C480188491C39
:1063B000018089B2042905D3002101808548006845
:1063C000016E884780BDC04680B59948002107F01E
:1063D00028FB80BD6408001010B5934800242146B6
:1063E00007F01FFB9148214607F01BFB8D48214613
:1063F00007F0C0FA10BDC04694080010C408001091
:1064000010B50C480C4901600C4C204605F0C9FD44
:106410002046FFF7C1FD0920032101242246FEF793
:1064200011FF07A0084900222346FFF7D9FC6A495B
:10643000086010BD440000102D630000840C0010A3
:10644000746F75636800000019650000FE20084045
:10645000042807D1044801220270081F414241412B
:10646000024801707047C046000A0010FC09001085
:10647000F0B581B00C46054602F0E8FDFA49FB484C
:106480000860234A13680220034313601368082638
:106490001E431660FF231B0116689E431660136897
:1064A00004261E431660F34A0A601A4F3968802298
:1064B000914339603968402291433960396820221C
:1064C000914339603968814339600126F0032946D8
:1064D000FEF7A2F9F860002C0DD00020C043B8618F
:1064E0007869B0437861032001463246FEF7AAFE80
:1064F0003868304309E0786930437861032000222E
:106500000146FEF79FFE3868B043386001B0F0BD29
:106510000C10004000300040B0B582B0002828D0F8
:106520000C460546401E012809D829480078002855
:106530004CD028480068836D294622469847052D8F
:106540002CD0042D42D1254800210180244801701F
:10655000FFF7C6FE1E480078002805D01D480068D9
:10656000836D0421224698471A480068007B012168
:106570002AE01C4803680022009201200146FFF730
:10658000E1FC19490860002801D0FFF7F3FC174827
:10659000FEF7BEFE1648FEF7D9FE17E0FEF7B4FF81
:1065A0000D480068FFF718FC00F024F80848007850
:1065B000002805D007480068836D052122469847CA
:1065C00004480068007B0021FFF752FF02B0B0BD15
:1065D00030010010A40C0010AC0C0010A80C00102E
:1065E000DD0300104C030010380300103963000075
:1065F0009D63000010B50B480024214607F0BAF94E
:106600000948214607F00DFA0848214607F009FA23
:106610000748012107F005FA0648214607F0F8FA75
:1066200010BDC0469009001094080010C408001066
:1066300064080010840C0010B0B50B884988090468
:10664000C91801629188D388148852880A4D8560E0
:106650000A4DC5600A4D05610A4D45610A4D8561C7
:106660000A4DC561002545601204121942621A04E0
:10667000511881620060B0BD359B0000519D000043
:106680003D9E0000599F0000659F0000AD9A0000EC
:10669000F0B585B000920F46054600240846214615
:1066A00000F0E6F93846214602F05AFD3846214608
:1066B00000F060F938460394214602F027FD2E468B
:1066C0001036482230463946FDF7A2FD284668308C
:1066D0001822009F39460492FDF79AFDFFF726FE27
:1066E000A86032483249334AEA652966686601245F
:1066F0002C80A86E68606C20285A0295A881788A40
:10670000012801D02D4800E02B48029DA8652846AD
:1067100080300499FDF795FD82202C54287C0028B8
:1067200041D00321CF43039B019644215943029A50
:106730005518297D002926D003932846143004904B
:1067400018350026042428680019C05D00F03AF8C6
:10675000286801197918C97800290BD0005DFE213D
:106760000140062904D10120052102F01DF801E0B5
:1067700000F028F80C34761C049800788642E2D3A6
:10678000019E3078039B5B1C8342CED300280AD045
:10679000029C5434002520688168884744346D1C6D
:1067A00030788542F7D3029805B0F0BDE99F00002C
:1067B000EF9F000021A900004DA4000015A00000DB
:1067C00041607047B0B504281FD804460320062155
:1067D00001F0EAFF60000D490C5C08184178204682
:1067E00001F0E2FF0121A140094842680A43094B38
:1067F0001A404468084D2C40A218426002688A433F
:106800001A400168294089180160B0BD3CDF0000D2
:1068100004800040FF01000000FEFFFF80B5042857
:106820000CD80322424306488318002901D0591C82
:1068300000E0991C0978805C01F0B6FF80BDC0467D
:1068400046DF00002B482C49016009490A680123F2
:106850001A430A6000BF00BF0A689A430A6000BF7B
:1068600000BF274901607047FC1000405A5A5A5A2D
:106870002C10004078563412B0B5074DA868074C6C
:10688000044008D006484168002901D020468847C6
:10689000286820432860B0BD5CB00040FFFF7F0047
:1068A000140A0010B0B51349134808601348026871
:1068B00002231A430260124808601249124A8A6190
:1068C000012214020D6825430D600C681C430C6006
:1068D0004B680E4C1C400E4BE3184B600B69134386
:1068E0000B614B6913434B610B6813430B60886169
:1068F000B0BDC046FC1000405A5A5A5A141000400D
:106900007856341200A000405555AAAA0000F0FFA6
:10691000FFFF0300F0B583B0024600270297084648
:106920000838182821D80D460124214681401048F6
:1069300001421AD0EE0802A8009211463246FDF735
:1069400067FC029839466D1E2246AA400346FB406A
:1069500023405B42134019437F1C002DF3D101916A
:1069600001A900983246FDF753FC03B0F0BDC046C4
:1069700001010001F0B50278002A29D00023002986
:1069800014D044245C430419656A002D0AD024798C
:10699000002C07D0ED1C002637462E700A357F1CD0
:1069A000A742FAD35B1C9342E9D311E044245C4331
:1069B0000419256A002DE4D02479002CE1D0ED1CC7
:1069C000002637462E700A357F1CA742FAD3D8E737
:1069D000F0BD000070B582B015460E46044601A811
:1069E0000D4901801021FFF795FF002D10D001A85F
:1069F000008831784C406D1E08210122224052420D
:106A0000024064085440491EF7D1761C2904F0D195
:106A10004F48A04302B070BD21100000F0B581B016
:106A20000446104D104868600027AF6028680521B3
:106A300001432960002C0ED00C4EAF607D20C100B8
:106A40003068FDF7E9FE0849081A401CA968814230
:106A5000FCD8641EF1D1286801218843286001B068
:106A6000F0BDC04610E000E0FFFFFF00480000104E
:106A7000F0B581B000900078002819D0002344249C
:106A80005C43009A14196569002D0ED02479002CFE
:106A90000BD0AD1C002637462E80002901D10022E4
:106AA0006A80AD1D7F1CA742F6D35B1C8342E6D3F0
:106AB00001B0F0BD70B582B00024E04301900090B9
:106AC0002348114E03223146FFF784FF6D46AC7117
:106AD0006C71E870000A2871B078A870307871780D
:106AE0000902081828807D20460201204202204623
:106AF000314602F023FC0823204631462A4602F0A4
:106B000029FC02B070BDC0460004001070B582B010
:106B10000024E043019000900D480E4E02223146C1
:106B2000FFF758FF6D46AC806880308828801F20B2
:106B3000C602012042022046314602F0FFFB082334
:106B4000204631462A4602F005FC02B070BDC04620
:106B5000FFFF00000404001080B500F099FD80BD27
:106B600080B501F064F8002080BD000080B51A49AE
:106B7000012202F043FF80BDBE490020C8800522EB
:106B80000A7108601449C880086008715D4A0221D2
:106B90001170124A1080124A10805B4A1070BF4A6E
:106BA0001170B74A1080B54A10800E4A10700E4A14
:106BB00010700E4A10700E4A1070AF4A10700D4AD5
:106BC0001070B14A10700C4A1070AE480170AF4896
:106BD000C089AF4908807047A8010010360B00102B
:106BE000380B0010320B0010310B0010330B00106B
:106BF000300B0010340B00102F0B001080B59D4996
:106C0000002202F028FF9C480178491C017080BDD9
:106C100020280BD1252008712420C87023208870DB
:106C2000222048702120087054207047532070475C
:106C3000FEB50C460546334A0127177032480078E6
:106C4000411F02295CD3022802D0032858D0FEE756
:106C500001AE3046FFF78AFF70780109022911D092
:106C6000012912D0002946D10F210840288001A90E
:106C70008978217087423ED201A9C9198978E155E6
:106C80007F1CF7E70025284621E001A98A78000744
:106C9000000D80182880CA782270091D621C00230C
:106CA000042B03D0CD5CD5545B1CF9E7401F0525B0
:106CB0000DE001A8FFF75AFF0220082806D001A91D
:106CC000095CAAB2A154401C6D1CF6E7B01F86B245
:106CD000072EEED2002E0ED001A8FFF747FF0020AE
:106CE000C1B28E4207D901AA89188978AAB2A154E3
:106CF000401C6D1CF4E70020034908700220014A83
:106D00001070FEBD3A0B0010350B0010F0B585B0C9
:106D10000C46584B0025DD80EB490D7005261E7191
:106D20001D605E4A1178012900D1A1E00728029078
:106D300001D201270EE0401F019006273946FDF7DA
:106D40008BFD47430199C91B01D0871C00E0471CFC
:106D5000524A484BF8B219898142029B00D287E01F
:106D60004649088046480580104601220270D548F1
:106D70000570EB48007803A90870062B0ED803A80D
:106D800043702178817001201D46C1B2A94218D2FA
:106D9000625C03ABC9188A70401CF6E70092019749
:106DA00003A98B701F461805000F1030487020781B
:106DB000C870601C091D042D0CD0425D4A556D1C25
:106DC000F9E703A8801CE9B2052947D8CC22425430
:106DD000491CF9E703AD2846FFF710FFF348007898
:106DE0002870AD1C781F0290019F009A7F1E380604
:106DF00037D00F201040203003A94870521C90B2A9
:106E00000F2800D9002200920197029880B206282C
:106E10000BD20021CAB2904211D9B3B2E35C03AFE6
:106E2000D2199370491C761CF4E7022008280ED072
:106E3000B1B2615C03AA1154401C761CF6E70298BB
:106E4000C0B2052806D8CC212954401CF9E7029885
:106E5000801F029003A8FFF7D1FEC5E703A8FFF744
:106E6000CDFE0948012101705248C08908490880B7
:106E700005B0F0BDB8010010DB0B0010DE0B0010F8
:106E8000DC0B0010D70100102E0B001000090010C1
:106E90002C0B0010014800787047C046E00B001032
:106EA00080B501F0DFFA00F0B1FE80BD00223C2980
:106EB00002D07D2900D00A46411C0078030608D084
:106EC0000B78D21893B2FF2B00D9FF3A491C401E11
:106ED000F4E7FF2090437047014800787047C046B0
:106EE0005103001080B5054802700548FDF790F980
:106EF00004480021016000F02BFB80BD5803001006
:106F00005C030010B403001010B50B484178012950
:106F100011D100244470FFF7CDFD0849C820487105
:106F20000C71F420C87001208870487050200870DF
:106F30000620FFF7EBFE10BD0004001070030010E8
:106F4000F0B581B0044606292DD16578A8083E2801
:106F50000FD81848407A291D0522D3B2E35CFF2BD5
:106F600002D0CBB2834222D8521E491ECBB2AB42D2
:106F7000F3D802268E4FA05D6D1C002807D0FF2895
:106F800008D0012100F09EFEFF2801D10BE0FF2078
:106F9000E9B27854761C062EEDD1207800210A46FD
:106FA00000F0D5F803E02078102100F0C3F801B01C
:106FB000F0BDC04600090010F0B583B00446C078AB
:106FC000217909020F186079E54D402807D13A4828
:106FD0004188A9426DD0B9423ED1012145E0617896
:106FE000A2781202511801910126314600F06AFE82
:106FF000029031484188A942009110D06C4A334632
:10700000B94203D0915D029E8E4206D05B1CDEB277
:107010007100415AA942F3D101E0FF210291CF4909
:10702000019B5A1A511E8A41CB490988591A4B1E95
:107030009941029BFF2B08D00A4006D10099A94232
:1070400037D0B9421AD1012121E01E480221017036
:107050001D48002101702CE00222D1B24B00C35A1E
:10706000AB4226D0521CBB42F7D15148FF224254BA
:10707000207800210A4600F06AF81AE00222D1B214
:107080004B00C35AAB4214D0521CBB42F7D1484804
:10709000029D4554207800242146224600F057F8EE
:1070A000002D06D10548BB214172AA210172044876
:1070B000447003B0F0BDC0465C0100107A010010BE
:1070C0002D090010D7010010DB0B001010B504468D
:1070D0004078002800D010BDA278501E0428FAD8AD
:1070E0002179E078022A04D8DD4B1B88D200083AC7
:1070F00005E0042A06D8DA4B5B88D200183AD34060
:10710000DAB201E0D64A12794A400242E3D120784D
:1071100000210A4600F01BF860798D49087010BD07
:107120006E010010704780B5007800210A4600F01B
:107130000EF880BD80B59EB06A46917050707F2079
:10714000107003201146FFF7E1FD1EB080BD10B5A1
:107150009EB0144640306A461070002C04D0684639
:10716000401C2246FDF754F8601C80B26946FFF7C8
:10717000CDFD1EB010BD0000B0B505467949002414
:10718000CC708C704C7072480078087014222046C5
:1071900002F00EFC0120BC49092202F009FC28780B
:1071A00021462246FFF7D3FFB0BDC0466E01001056
:1071B00052010010F0B59FB00024334D334E344FD0
:1071C000285D002858D01EA86946FFF731FD305DC4
:1071D000AF2813DD0146B039072946D8794409792B
:1071E00049008F4403151B2127422A301EA802881C
:1071F00058480078694600F053F83BE02F2828D023
:1072000032282CD0A02830D101202249087031E04A
:107210001EA801886846FFF7CFFE2BE01EA8018854
:10722000684600F0A1F825E01EA801886846FFF72F
:107230004DFF1FE0012038701CE01EA80188684641
:10724000FFF79AFF16E01EA801886846FFF778FE50
:1072500010E01EA801886846FFF765FF0AE01EA837
:1072600001886846FFF75EFF04E01EA90A886946A8
:10727000FFF738FE00202855641C1B2CA0D100F01D
:107280000BF81FB0F0BDC04610090010D6E000009A
:10729000E8030010E903001080B5FFF7FBFD80BD97
:1072A000F0B583B00C46F74E3178091A4B424B418A
:1072B000284909780F1A7D427D417F38474247416E
:1072C000062A42D12F431F433FD06078A278120292
:1072D0001218634803889A4202D0624B9A4234D112
:1072E000E27823791B029A184088824202D01C4817
:1072F00082422AD131702078002529462A46FFF79C
:1073000026FF1848C570857045706779077037701B
:107310007B20440201AE082328462146324602F073
:1073200013F8B21E0121491E501C9278FF2A024612
:10733000F9D1002902D00178B94206D04770002067
:1073400001AA0823214602F005F803B0F0BDC046AB
:107350006E0100107901001090E10000FF7F000035
:10736000FFFF000038010010F0B583B004468178BB
:10737000C278100240183A4B1B88984209D0394B0A
:10738000984206D07148022101706E4800210170B8
:1073900059E06078F32828D1FF2A4DD13F294BD1FD
:1073A0002079022848D16079032845D87D204702FA
:1073B0002D4D022638462946324601F071FF60798C
:1073C0002978814241D1601C0090384629463246D6
:1073D00001F066FF26710020E070A07060702878D0
:1073E000607120780522009936E0E02101402029D3
:1073F00025D10025EA4301A90A710192FFF708FC93
:1074000053281CD054281ED101A80078FF2809D188
:1074100001A8401C0021042911D04A1C415CFF290D
:107420001146F8D001A8001D415DFF2910D16D1E45
:10743000691DF9D100210CE02078312101E020788C
:107440001221FFF777FE03B0F0BD20787221F8E734
:10745000691D2078CAB201A9FFF779FEF3E7C0469B
:1074600090E10000FF7F0000040400100F49097A3A
:10747000054A0B0605D0CBB2D35C491E8342F8D136
:1074800000E0FF21C8B270475201001006480021F9
:1074900001700648C0880649088006480178FB222A
:1074A0000A4002707047C046D60100100009001063
:1074B00020040010F4080010B0B50C46054608463C
:1074C000FFF7D4FF17490870FC212940042922D175
:1074D0000101154A515C012902D0144901220A70A8
:1074E0003D2C0CD03C2C13D1134903220A701349B4
:1074F0000A70134902220A711249002204E00C4961
:1075000006220A710B4903220A700F4900220A70F1
:107510000E4903220A7000F0C3FE204600F0A2FFCD
:10752000B0BDC046DE030010F4E000002C090010DE
:10753000B8010010E00B00103A0B0010350B0010E2
:10754000A8010010DB0B00102F0B0010D70100105A
:10755000F0B581B0484800260670484F3C78484D49
:107560002878012826D1FFF7B7FC464909788842D8
:1075700020D138783E2807D010280BD17878802188
:107580000143822912D014E07878802101438029B8
:107590000CD00EE07978852801D1822906D02828E0
:1075A00007D1832905D1B878032802D1012028709A
:1075B00000E02E70262C1CDD3D2C23DC273C102CFB
:1075C0004CD8C0467C4424796400A744082B474724
:1075D0004747472E47473847470847080800FFF7FF
:1075E0007BFC7E2845D0FFF777FC7F2841D07F20A9
:1075F0003DE0132C0FDC102C24D0112C2ED103F0E5
:1076000003FF36E03E2C20D0852C21D0B52C25D18F
:1076100003F062FD2DE0142C1DD0222C1ED103F0AE
:107620005DFE26E003F0A2FC23E0FFF755FC7E2878
:107630001FD0FFF751FC7F281BD0332017E003F049
:1076400067FF16E003F0D0FF13E004F04DF810E000
:1076500003F0F6FD0DE003F089FD0AE0FFF73CFCC6
:107660007E2806D0FFF738FC7F2802D0122001F0D8
:10767000E7FE01B0F0BDC0464E0900105C030010EB
:10768000F40900106E01001080B500F08FF980BD84
:1076900010B50024204600F097F9204610BD0000E8
:1076A000F0B581B0044640051ED5E1480188491C6B
:1076B000018000F0FEFAB3488089B3490880ED48A4
:1076C00001780A290BD100210170D048C088D44923
:1076D0000880D4480178FB220A4002704FE1032160
:1076E0000170D04804210170A0061FD5A7480221CF
:1076F0000170E64D2878821F022A17D8062802D08A
:10770000072803D10121012001F064FDA048017880
:10771000042000F0A1FA00202870BC48C088C049AD
:107720000880C0480178FB220A400270200502D47C
:10773000D648007805E0012001F059FDD349042026
:107740000870610737D5042835D1012600256F461A
:10775000304629463A4601F089FD3878314600F036
:10776000B1FA01468A480170C148009A0270FF29A7
:107770000CD0002000F070FABA480078400081492F
:107780004018801E00888349088014E07F49032048
:107790000870A44E317840220A433270FF2100F075
:1077A0005BFABA4805709948C0889D4908803078CE
:1077B000FB2101403170E00702D1B448007837E086
:1077C00001256A462846294601F050FDAF4E307823
:1077D0000A285ED006282BD1A44801684A1C026002
:1077E000009848709F4800789D4F3978814200D0BA
:1077F000A2E001250221284601F0ECFC9C4801781A
:1078000099480068FFF752FB6946097888427CD1A5
:1078100009203070E249087828430D460870E14895
:107820000178022000F018FA30780A287AD183E033
:10783000E1051AD5072818D1D64E09203070D84D49
:107840002978012001432970D649097800F004FA0B
:1078500000F002FB00203070E748C088E74908804C
:107860002878FB210140297069E061042CD50728A4
:107870002AD1CA48082101700120014601F0AAFC62
:10788000C8480178062000F0E7F9DF4800210170C0
:1078900010E08020009948400006000F09010818F8
:1078A000C0B208284BD88540FF20D230054246D0D0
:1078B00000203070D048C088D0490880D048017876
:1078C000FB220A4002703AE0A10538D5072836D1DC
:1078D000E0480078CB4D2A78824230D8AF490B7807
:1078E000082B02D10978022929D0C2490968511808
:1078F000491C861A052E00DB0426F2B2012001F095
:10790000C4FC28788019287019E0A448042101706B
:10791000BB4D2878122101432970A2480178052027
:1079200000F09AF900203070B348C088B34908804D
:107930002878FB21014029703878401C3870E00419
:107940000ED5964801210170AF4800210170AA4868
:10795000C088AA490880AA480178FB220A40027020
:10796000200702D58D4803210170600602D58B489F
:1079700005210170200602D588480621017001B05A
:10798000F0BDC04664E10000E00300102B090010C8
:1079900050030010080A001080B500F04BF80020DA
:1079A00080BD0000984800787047C0469648002186
:1079B00001709148C0889149088091480178FB2264
:1079C0000A4002707047C046B0B58B4D1048E86061
:1079D0001B20A8720F4828810F4886499D4A0A60DB
:1079E0004B210A022A606860012000240B4B2146CB
:1079F00001F020FC84480470E888804908808048B1
:107A00000178FB220A400270B0BDC0460009001098
:107A10001400E80307050000E8038813A1760000BE
:107A200020040010F4080010014800887047C04688
:107A30004609001080B50346724800210170854850
:107A400003706C4800680949086069490978421C5C
:107A5000012001F016FC6C480621017080BDC04673
:107A6000480300103C0900100C0A0010F80900102F
:107A7000D4010010D60100100348012101706248B2
:107A80000A2101707047C0463B090010D601001062
:107A9000B0B53A490A78012A0DD0022A1FD1384AD6
:107AA0001388002B0BD1394A05231370CA4A0324CB
:107AB0001470374A0EE0324A1388002B05D08342F7
:107AC00000D80346191A118009E02E4A04231370C6
:107AD000C14A0323137000220A702B490A704A4CD2
:107AE000217808290ED801228A4067239B001A4278
:107AF00009D02D490A88002A21D0824200D80246A6
:107B0000101A0880B0BD002925D00629FAD12249D3
:107B10000A88002AF1D13B48007800280BD01F4981
:107B20000720087036490A78022313430B701D4959
:107B3000097800F091F80120022101F04BFB0020B0
:107B40002070DD48C0882D4908802D480178FB222F
:107B50000A400270B0BD294D2988002904D0814215
:107B600000D80146081A07E00820FF2100F074F849
:107B70000A202070D048C0882880B0BD2E0B00108D
:107B80002C0B0010E00B00102F0B0010350B001019
:107B90003A0B0010D6010010080A00102B09001043
:107BA000F408001050030010E003001010B5CE4C94
:107BB00023780F4801780F480068421C012001F02B
:107BC00068FB002807D02078042800D304200D4942
:107BD0000870072009E0B848C088084908800848AC
:107BE0000178FB220A40027000200749087010BD8E
:107BF000D40100100C0A001000090010200400102D
:107C0000F408001048030010D601001080B5FFF7FB
:107C100033FF80BD80B5082801D9052080BDB24959
:107C20000870FFF7C3FF002080BDC046704780B5D5
:107C3000FFF7FCFF80BD0000B0B5044600252946D3
:107C400000F0D0F82046294600F03CF8A6494870DC
:107C5000B0BDC0463C09001080B5082822D882007B
:107C600001A39A589746C0468D7C0000957C000081
:107C70009D7C0000A57C0000A57C0000A57C000088
:107C8000A57C0000A57C0000AB7C0000084600F04D
:107C90003DF880BD084600F065FB80BD084600F059
:107CA00027FB80BDFFF708FC80BD0846FFF7F8F80A
:107CB00080BD704780B5FEF753FFFEF74DFFFEF71E
:107CC0005BFF80BD10B5420803095340C2085A400B
:107CD00044095440E201434084085C40E3075B0EE2
:107CE000D3187F22D2435A40012907D1C021014035
:107CF000D2B2914205D00020C04304E00243D0B28A
:107D000010BD3F210840C0B210BD0000FEB5FFF716
:107D1000ADFB05464B480570FF2D50D028014A4E5B
:107D2000305C012829D1009528013018C0680190E5
:107D3000007802A90870087800013018C488087813
:107D400000013018077A00200646BE422AD2A1B2AE
:107D5000224A515CFF290DD0019800782049401833
:107D600045782846FFF782FB364908702846FFF71A
:107D700063FF0220641C761CE7E7290171188978EB
:107D8000012916D100281DD0D54C2078002816D006
:107D9000D5480078032812D000F094F82078401ECF
:107DA000207013E0C0B20228009D274E0ED001289B
:107DB00005D1280130184078FFF7EEFDFEBDFFF732
:107DC00063FCFEBD0020014600F00CF828013018CD
:107DD0004078FFF71FFFFEBDD70100106F010010B4
:107DE00052010010F0B5174804782001164A121805
:107DF0005378BA480370928800290AD00121134CA5
:107E0000CDB2AB421CD3455D96B2A555521C491C60
:107E1000F6E70F490D5D01240E4EE7B2DBB2BB421F
:107E20000ED37B1E2946D940C90701D0F35C02E07E
:107E300091B2064B5B5CC355521C641C0378ECE7A3
:107E4000F0BDC046DE030010F4E000007A0100102F
:107E500034090010400300107047000070B5A449B9
:107E6000C8680988C90042185378F0241C40102CB7
:107E700001D0921C00E0D21C1478405C7E2800D116
:107E80007F209A4DA97A00260C4AB1420DD0935D0D
:107E9000A34201D0761CF8E7094901228A5501F076
:107EA000FDFAF0B2A97A814204D1002111222046C4
:107EB00000F02AF970BDC04600090010D6E00000AD
:107EC000100900101CB56846ED490024224601F057
:107ED00095FD8248082C05D001196A46125D4A704A
:107EE000641CF7E71CBDC0463C090010F8B57B4890
:107EF000437881780A09012A03D0002A03D1C47883
:107F000002E0047900E0FF24FE251D407E2D09D00B
:107F1000D44D2D789D4205D0B02C34D1D04C24784E
:107F20009C4230D16F4E3478042C01D0022C0DD1FC
:107F30007E2B0BD16C4D2D78002D07D1D24802211C
:107F40000170D448C089D4490880F8BD7E2B1ED06A
:107F5000022C1CD1644D00242C70C94DEC802C6087
:107F600005272F71C14DEC802C602C71C54D022767
:107F70002F70604D2C70604D2F70C44D2C707E2B77
:107F80000CD004230BE0C14800210170F8BD022A87
:107F9000F5D1554C2478032CF1D19DE006233370A4
:107FA000C378022908D13E2B06D10479802C03D155
:107FB000544800210160F8BD022A1FD0012A2ED0AA
:107FC000002A00D088E00F221140062957D8AE4978
:107FD00000220A70474902250D70434901240C70A4
:107FE000A249CA800A600A71401C224601F033FD92
:107FF0004348047041480470307868E0A24C022580
:108000002570A44AD289A44B1A800F2211403B4A02
:108010001378994236D10F293CD0491C3BE009071F
:10802000090DCF18072F2AD39A4A91890624614354
:108030008F4224D2944902230B708C490025CD80B5
:108040000D600D71D289EB4B1A80401C0122009209
:1080500001F001FD294800990170E84805707D1F75
:1080600028462146FCF7F8FB4443291B00D0401C5E
:1080700023490870307806282ED0042000E0002024
:108080003070F8BD1C48062101701A4801700020AC
:108090002070F8BD00211170194F3978491E3970D0
:1080A000401C72490124224601F0D5FC3078062894
:1080B00001D1062001E004203070397800290BD16D
:1080C0000021CA4A11700B490D70CC490C7006286A
:1080D00000D03570FFF7C2FEF8BDC0463C09001065
:1080E000DB0B00102F0B0010D7010010000900104F
:1080F000A8010010350B00103A0B0010300B0010D7
:10810000340B0010B4030010F0B585B003AECC23DF
:10811000F371B37173713271F0707F23B370032503
:1081200075704F4B1B784F4CB0281F4600D02778F6
:108130003770012960D10146B0390B295CD8C0469F
:108140007944097949008F440E571E4657574B50C2
:108150005757050503A9FF220A71CA7001224A7008
:108160004030887048E04148C1680088C000081865
:10817000C079207003A8FF2101713D494180012190
:108180004170037038E003A8F2218170062141702C
:10819000002A53D0E020104020282DD10020C043D9
:1081A00001AC2071019010462146FEF731FD03A875
:1081B0000199C17061780171A1784171E178817193
:1081C0000299C1710420002816D401A9095CFF2975
:1081D00041D1401EF7E703A8FF210171224908E0C1
:1081E00003A8FF210171234903E003A8FF210171C6
:1081F000214941800121417021480121C18005713F
:1082000000220260082A08D003AB9B5CC468058882
:10821000ED006419A354521CF4E7734A1180764AA6
:108220001170724A1170194A1170408818490880FB
:108230006F48C0896F49088005B0F0BD0F480179CB
:1082400003AAD171418851710088D070090A9171D7
:10825000000A1071D0E7801C03A94870CCE7C04623
:10826000790100106E010010F3FF0000A80100105A
:10827000F0FF0000F6FF0000F7FF000090E10000B3
:10828000B8010010E00B00102E0B0010DB0B0010EB
:10829000DC0B0010000900102C0B001070470000D0
:1082A000F8B500016C49085C012817D00C4800782B
:1082B0008349097800910B4A0B4B0C4C00280DD0D8
:1082C00015780126AE401F88E15DB143009EAE40A7
:1082D0000E43E6559B1C521C401EEFE7F8BDC046FE
:1082E0008EE10000A2010010A40100107A0100102C
:1082F000F8B50446714801250570584E30780101E3
:10830000554A505C5718112806D0002806D1002085
:108310000121FFF767FD01E000F014F8387AF988D1
:1083200032782F4B9D5400224D4B824205D28DB2A4
:10833000FF265E55521C491CF7E7204600F092F8D4
:10834000F8BDC04680B506484078002802D0FFF747
:10835000CDFD80BD5B4801210170FFF757FC80BD5A
:108360003C090010F8B504465448012505703B4E01
:1083700037782046FFF77AF8307000F043F830780D
:1083800017490D543901344A5118C968002909D0D8
:10839000144A12780978914204D1494900220A709E
:1083A000FFF77EFF204600F05DF83D2C17D10E4808
:1083B0000188491E0180080407D00C4805700C484C
:1083C000C0890C490880022007E00B480221017097
:1083D000064A00201070094A117009490870F8BD5A
:1083E0002D090010100A0010DE0B00102E0B0010DB
:1083F000000900102C0B0010E00B0010D70100103A
:108400002F0B0010B0B501011348425C112A22D095
:10841000012A13D11149097809014118C96809785D
:1084200009014118087AC98800220D4B824212D2F4
:108430008CB2FF251D55521C491CF7E74118087ADC
:10844000C9880022064B824205D28CB2FF251D55F9
:10845000521C491CF7E7B0BDF4E00000DE03001039
:108460006F010010B0B514490A88930707D0134B69
:108470001B78134C247825461D43AD0004E00F4BB8
:108480001B780F4C24780025154325435A002A43B6
:108490000C4B1B78DB0013430B4A127892011A43F2
:1084A000FF2804D0D2B200028018102202430348F1
:1084B000002303700A80B0BD4A090010490900106A
:1084C0002C0900103B0900104809001070B5034644
:1084D0000025E843002B25D1541801231E04B44283
:1084E00020D86A486A4C465D761E66556D1C382D4C
:1084F000F9D13620FF252554A57772B6654D66481B
:1085000028601806654B1E6886431E6008461146A3
:1085100000F00AF86248286062B638212046FBF76E
:1085200090FE002070BDC046F0B581B05B4CE268A3
:10853000102300939A43E2604118491E490A491CDE
:108540008EB2400A87B2B7420CD2094D7F2039461D
:1085500001402268824350182060286880477F1CB1
:10856000BE42F3D1E06800990843E06001B0F0BD7D
:1085700034010010F0B587B00D46581800260121CF
:108580000904884201D9F0434EE01F4614460321F6
:108590002846084010D02A468A431168526805923E
:1085A000049104A909180822161ABE4200D33E46B7
:1085B00020463246FBF72CFEB81B072103460B4032
:1085C000082824D3024600938A4302957119039424
:1085D0000196A7190023CC186468CD58FD54FE18E5
:1085E0003471280EF070280CB070280A7070200EBC
:1085F000F071200CB071200A707105940495083355
:108600009342E8D3019EF618039C029D009B002B29
:1086100009D070597119496805910490A01904A9ED
:108620001A46FBF7F5FD002007B0F0BDF0B581B0AC
:1086300004460026F043002C26D15C1801252F04A7
:10864000BC4221D81148124C875D7F1EA755761C6D
:10865000382EF9D13620FF262654A67772B60D4E55
:108660000D48306028060D4D2F6887432F6008465F
:1086700011461A4600F016F8B148306062B638214B
:108680002046FBF7DEFD002001B0F0BD55DF000005
:1086900000000010F800FF0055AA55AA1C00FF00BA
:1086A00078563412F0B58BB0079105463C490868FE
:1086B000102303939843086003202B4603400026B1
:1086C000F743002B0695059204971AD0089709974F
:1086D00085432868696809910890164608ACE01837
:1086E0000822D21AB24200D3324607991646FBF747
:1086F0008FFD2C480268284621469047059A069D22
:10870000049F1046941B072122460A400292082C1F
:1087100033462CD38C435E1901930798C718002564
:10872000781901794279120251188279C3791B02B2
:108730009A18120451180991795D42781202511861
:108740008278C078000280180004401808907019E0
:1087500014490A6808A990470835A542E0D3019B4F
:108760005B19069D07990598049F029A01E0029AF9
:108770000799002A0DD008970997801A091808ACA4
:1087800020461E46FBF744FD701906490A6821463B
:10879000904703490868039A104308600BB0F0BD86
:1087A0002800FF004C010010B0B50C46654D0628AE
:1087B00000D20C350621FCF72FF888002958072233
:1087C000914321432950B0BDF0B581B004460178F2
:1087D000584A59481060594B1868042505431D60D4
:1087E0001D68022005431D605D6805435D60544BB4
:1087F0001360544A062900D20C326178704E524FF1
:108800005C4D022900920DD3891E012914D82178CC
:108810007A687B682B4001258D40154335401D4308
:108820007D6009E021783A683B682B4001258D4046
:10883000154335401D433D60227907211140A27840
:108840003E46012A03D0022A02D1403100E0203105
:10885000E278D207D70E0F4361780143032902D192
:108860005748401C0743257806212846FBF7D4FFCC
:10887000880000990F506079052854D87844007911
:10888000400087445402121F32450120A8404C4C3E
:108890008443306920403169364A114001433161D7
:1088A00070692040716911401CE00120A840444DCE
:1088B0002946814332690A4031692E4C21401143D7
:1088C00031611DE00120A84031690143F54D294087
:1088D0003269284C22400A4332618543706928403E
:1088E00071692140014371611DE00120A840316997
:1088F0000143EC4D29403269ED4C22400A4332617C
:1089000071690143294070692040084370610AE0A1
:108910000120A840316A0143E2480140306AE44A3C
:108920001040084330620020C043B060F06101B0E5
:10893000F0BDC046FC1000405A5A5A5A241000405C
:1089400078563412002000400880004010B5012302
:10895000834007480268D34C002901D01A4300E045
:108960009C4322400168D24B0B409918016010BD16
:108970000480004000FEFFFF421E012A01D90120B1
:108980007047012801D0054800E003480068C54A47
:1089900002400A60002070472C6000402CB000406C
:1089A000421E012A01D901207047012801D0BF4889
:1089B00000E0BD480068BB4A02400A6000207047E2
:1089C000FF010000421E012A01D901207047012841
:1089D00001D02B4800E02948026801239A4351182E
:1089E000016000207047C046421E012A01D90120C3
:1089F0007047012803D105480068C0B201E0024871
:108A0000006808700020704730B0004030600040BF
:108A100002460120022A0DD8002A0BD0002909D0D5
:108A2000012A03D105480068C0B201E0024800688D
:108A3000087000207047C04604B000400460004049
:108A400001460120022918D8002916D0002A14D086
:108A5000002B12D0012901D0094800E00748016825
:108A6000022291430160016804220A430260016806
:108A7000012292060A43026000207047086000400D
:108A800008B00040F0B5012402285CD800285AD074
:108A9000002A58D0002B56D0642400BF641EFCD19D
:108AA0002A4C2B4D0128264600D02E46766EB6065F
:108AB00014D4012800D02C46A0680225A843A06049
:108AC000A068012676060643A6600E467D3E701E0F
:108AD000864100203C2913D1014612E0012800D034
:108AE0002C46E06D20210143E165A0680121CA0503
:108AF0000243A260A06809060143A160042422E0A9
:108B0000B101A6684027BE437118A160A1680F2675
:108B10003604B1431E07360B8919A160A1682943A9
:108B2000A160042B00D304230146A56A6D07FCD481
:108B3000105C2568FF26B54328182060491CC8B280
:108B40008342F2D800242046F0BDC04600600040B9
:108B500000B0004010B503282CD8174A800001A3AC
:108B600018588746758B0000838B0000898B0000A6
:108B7000918B000011480023036010680423984380
:108B80000EE00E48012301E00C480223036004E0DC
:108B90000A48036803241C43046013680420184334
:108BA0001060481E81414800116802239943014327
:108BB000116030BF10BDC04610ED00E000C00040A5
:108BC000F0B581B0022801D9012067E00D460446C6
:108BD00000283ED0B348012C00D0143000680006B5
:108BE000000F411C2E48FBF717FE060930462946A8
:108BF000FBF712FE074628467843301A0001294643
:108C0000FBF70AFE0007000C264939404118264AA6
:108C10002648012C134600D0034619601969244EDA
:108C20000E402449A04FBD4222D308252E431E6189
:108C3000012C00D0024600205062012C04D10F22EA
:108C400012030B6893430B600A6840239A430A603F
:108C500024E000F0B9FE2946FBF7DEFD16490A685C
:108C6000164B1340401E164A02409818086014E044
:108C7000C8252E431E61012C00D0024603205062FD
:108C8000012C06D10F2212030B689343000318181E
:108C900008600868402202430A60002001B0F0BD6D
:108CA000006CDC02FF0100001460004014B00040C2
:108CB00000FEFFFF2CF000400440004000C0FFFF1A
:108CC000FF3F0000F0B581B016460C460546ED4A60
:108CD000022802D9EC48106062E010D0012D36D095
:108CE000002DF7D1022701213846FFF75DFDE54A47
:108CF000E54810606B481038016839434FE00320A5
:108D0000009605263146FFF74FFD042738463146C9
:108D1000009EFFF749FDDC48DA4908606148416977
:108D2000012211434161416991434161416902223C
:108D30000A43426141693943416161784269F023E4
:108D40009A430907090E5118CE4A416128E0207B59
:108D5000022809D1072002273946FFF725FD082000
:108D60003946FFF721FDC74AC74810604D480168E2
:108D700017460122114301600168914301600168B7
:108D800002220A430260016804220A4302606178F9
:108D90000268F0239A430907090E51183A46016008
:108DA000D948106021692846FFF70AFF002D76D0C8
:108DB00000966C486C49012D024600D00A46267B7D
:108DC0005368022E07D101263343536053680426AB
:108DD000B343536009E00126B3435360227B012A69
:108DE00003D17203636813436360012D024600D010
:108DF0000A46536908261E43566122692A4B9A4245
:108E000004D301229203636893436360012D0246F9
:108E100000D00A46237B166801277906314311608A
:108E20001168BE060E431660012B01D0204E00E0F3
:108E30001E4E022B00D107261660516D1D4B1943A3
:108E40005165617A002911D0012D00D04648616832
:108E5000826D19408A438265A80017494018001F97
:108E600000990160012D08D00A2107E0012D00D0F2
:108E70003D48816D1943816511E005218807C00EC9
:108E8000FF2282400D4BC9180323DB430B401968B6
:108E90009143227A9207120E82400A431A6001B06F
:108EA000F0BDC04620100040014B0000ED8308607B
:108EB000ED810860FFFF7F00140A001000E400E06D
:108EC000421E012A01D901207047012802D0012049
:108ED000800200E02020074A1060002902D00649E5
:108EE000086005E066490860BFF34F8FBFF36F8FDE
:108EF0000020704780E200E000E100E070B500284B
:108F00002ED000292CD0CA07164A174B08D00128AA
:108F1000144600D01C462568012676062E4326609E
:108F20008C0708D50128144600D01C462568012668
:108F3000B6062E4326604C0708D50128144600D0FB
:108F40001C4625680126F6052E432660090707D52D
:108F5000012800D01A46106801210906014311605A
:108F600070BDC0460860004008B00040F0B582B057
:108F700001920123022836D80A46002933D00199EC
:108F8000002930D00023194C194D1A4E00920028A8
:108F900019D001280CD0022820D1B16A4907FCD48D
:108FA000D15C3268FF27BA435118009A316015E04E
:108FB000A96A4907FCD4D15C2A68FF27BA43511833
:108FC000009A29600AE0A768FF07FCD10099CA5CF3
:108FD0002168FF27B9438918009A21605B1C019919
:108FE0008B42D4D10023184602B0F0BD00400040AF
:108FF0000060004000B00040064A536803435360DD
:10900000002902D01168814301E011680143116019
:109010007047C04628C000400149096808407047B1
:1090200030C0004010B5074A1368074C1C40000AC6
:109030000001201810601068012398434018106048
:1090400010BDC046040000400F0000F00C4808218D
:109050000160BFF34F8FBFF36F8F0A480A49016069
:109060000A490A6801231A430A6000BF00BF0A6860
:109070009A430A6000BF00BF234901607047C046A1
:1090800080E100E0FC1000405A5A5A5A0C1000408F
:10909000B0B50E4B1C680225AC43C007800F2018EA
:1090A00018601868F024A0430907090E40181860DA
:1090B00003200002196881439007800D081818608A
:1090C0001868012101431960B0BDC04638C0004096
:1090D00005490C4A8A610A6801239A4310180860FE
:1090E000094888617047C04600A00040044805490F
:1090F0008160016801220A43026003498160704770
:1091000010A000405555AAAA78563412F0B581B087
:1091100000900078002819D0002344245C43009A72
:109120001419A56A002D0ED02479002C0BD0AD1C8B
:10913000002637462E80002901D100226A80AD1D0D
:109140007F1CA742F6D35B1C8342E6D301B0F0BD7F
:10915000024800684078411E88417047A40C001006
:10916000F0B583B0019000780090002830D0002343
:1091700044205843019A1518AA69281D0290002A14
:109180000FD002980678002E0BD0971D002422469F
:109190003C80002901D1002078800A37521CB2425D
:1091A000F6D3EA69002A0FD002980478002C0BD07D
:1091B000951D002210462A80002901D100266E80CC
:1091C0000A35401CA042F6D35B1C00988342CFD3E3
:1091D00003B0F0BD80B50A46012111404B42052184
:1091E0001940920700D50A31FFF788FE80BD10B5FF
:1091F00082B0012401A92046FFF7D2FB6946204630
:10920000FFF7BAFB00980199441A00D20C1A0E20FD
:1092100048436421FBF700FB844208D90124002164
:109220002046FFF7CFFB20462146FFF7CBFB02B0DD
:1092300010BD0000B0B586B0044601AD0020288006
:10924000FF2004302881481E814129730592064879
:109250000290204629461A46FFF734FD0121204698
:10926000FFF72EFE06B0B0BD2D5F000080B50029CF
:1092700003D01146FFF7CCFB80BD1146FFF7B4FBCE
:1092800080BD80B5FFF7DCFB80BD80B5FFF76EFECB
:1092900080BD80B5FFF7F6FB4142484180BD00002C
:1092A000F0B585B015460F460446101804A90422EF
:1092B00000F062FA002D029419D0009700273E4674
:1092C0000195381903AD01242946224600F054FACD
:1092D0001948B0432946019D2246029CFDF77AFBBE
:1092E0000646781C87B2AF42EBD3009F00E0002611
:1092F000049CB44204D1029839462A4600F03CFA54
:10930000A11B4842484105B0F0BDC04670B582B0CF
:1093100014460D4606460848FDF75CFB01903046B2
:109320002946224600F07EFAA01901A9042200F085
:1093300079FA02B070BDC046FFFF000080B5FFF7AC
:10934000C5F84142484180BD80B5FFF713F941425D
:10935000484180BD80B5FFF769F94142484180BD71
:10936000F0B583B01C46154680229F5C80344422B1
:109370007A43AA18002908D0D36B002B03D0667853
:10938000B6009B5B1818303200E034321268002AB5
:1093900001911ED066780A237343D65C002E18D044
:1093A000D118CA78002A08D1CA1C032313700A1DD9
:1093B0000023D0529B1C062BFBD1CA888A800A89C5
:1093C0000881CA808B784A78091D032002F042FB8D
:1093D0002778442677430295E9198F6B002F07D031
:1093E00001994B424B41617802B2384604F074FC5B
:1093F00021787143029A51184F6A002F08D0019DBD
:109400006B426B41617802B2384604F041FC00E0E7
:10941000019D21784E4302998919002D01D02831F0
:1094200000E02C310E68002E06D06B426B41617853
:1094300002B2304604F078FC00B203B0F0BD000088
:1094400080B515497F220A708870124800784870EC
:10945000FDF720FD022803D0FDF71CFD042803D1F1
:1094600003200D49FDF752FC80BDC04610B50446EF
:1094700008480078403008490870FDF70BFD0228C5
:1094800003D0FDF707FD042803D103492046FDF76B
:109490003DFC10BD5C030010700300100149087012
:1094A0007047C04651030010F0B581B000920D46E0
:1094B0000646802100206852317C002933D02F4697
:1094C00080370146C9B2442461437218516C009B35
:1094D000002B0AD0002914D0C0B20C21414390695E
:1094E000415C506D436901220AE0C0B2C140C90726
:1094F00007D00C2141439069415C506D43690022C3
:1095000098477878401C787039784C432A19127D36
:10951000C3B2934203D300207870491C3970327C67
:10952000CBB29342CED301B0F0BDF0B581B0009282
:109530000D460646802100206852317C002933D038
:109540002F4680370146C9B2442461437218916C9A
:10955000009B002B0AD0002914D0C0B20C2141433B
:109560009069415C506D436901220AE0C0B2C1407C
:10957000C90707D00C2141439069415C506D436994
:10958000002298477878401C787039784C432A1923
:10959000127DC3B2934203D300207870491C397006
:1095A000327CCBB29342CED301B0F0BDF0B587B0E0
:1095B00007467820085A3B7C0491783100280697AA
:1095C000059135D0002B00D1CCE000263446314641
:1095D0003046039300900191314602942046C4B274
:1095E00044236343049AD418247D471C4E1CF5B2CF
:1095F000A54200D30297069AD3181B6CCAB2D34077
:10960000DA070BD0A542314600D30021A542039BC7
:1096100000D33846C2B29A42E1D30CE0A54200D34F
:109620000026029CE2B2039B9A42069FD2D305E039
:109630000020014602E000980199069F059A5172A8
:109640001072C2B29A4200D38EE0484DC2B2442496
:109650006243BB181E6CCBB2DE40F6070DD0491C2E
:10966000059C6172049B9A18127DCBB2934274D30D
:1096700000216172401C20726FE00C200390434374
:10968000069F1437B8184168C918066CF26830464E
:1096900090472146059C207A029141437A18069F03
:1096A000526B002A0AD0607A039A50437A18916963
:1096B000095C506D436901229847207A029C6043FF
:1096C0003818C169002908D00599497A0A224A4305
:1096D000006A811832693046904700273046394683
:1096E000FDF76EF8B3690122304639469847706835
:1096F000AF4202D87F1C0028F9D00599087A604350
:10970000069F3818826C497ACA40D207039A06D05D
:109710004A438169895C406D436900229847F16939
:1097200030468847059E307A2146414379184C22BD
:10973000895A002903D000BF491EFCD1307A717AC2
:10974000491C71724443049A1219127DCBB29342A0
:1097500003D300217172401C30723A7CC3B2934231
:1097600002D273E70020088107B0F0BDFEFF0000C1
:1097700080B500F003F980BDF0B585B017460191C2
:10978000054607202C46044014D08543002002AA39
:10979000082629463346FFF7D7FD361BBE4238D28E
:1097A00002A8011901983246FAF732FD0096BF1B54
:1097B000083501E000200090BFB2002F2FD0002418
:1097C0002E466119002002AA0823FFF7BDFD00986C
:1097D00020180199081825460835BD4210D2039972
:1097E0000171029A02700B0EC3710B0C8371090A8E
:1097F0004171110EC170110C8170110A417003E0AA
:109800003A1B02A9FAF704FDACB2BC423546D7D3E5
:1098100005E002A8011901983A46FAF7F9FC01207F
:1098200005B0F0BDF0B591B0069204910A903F20CA
:109830008102012003904602002420460C9132460A
:10984000FFF77CFD002800D193E006980A994018A4
:109850000990494D0D401F2001010B91C743059709
:109860001037E919103100240DAA10232046FFF704
:109870006BFD00287DD00C983918103100240DAAFA
:1098800010232046FFF766FD002872D010370B9892
:109890008742E6D30024204629463246FFF74EFD94
:1098A000002866D00998401B07900A9AA91A0498C4
:1098B000029140180190500A059F784300010DA9BC
:1098C00008188018089010370C98391810310024A7
:1098D0000DAA10232046FFF737FD002849D0E819CC
:1098E000064610360999B1422CD920300A9988428F
:1098F00028D90A998E4208D80999884205D2029837
:10990000C2192032089804991AE00999884208D9A6
:109910000A998E4205D30198C11910310DA8079AF2
:109920000EE00A998E4208D30999884205D8019819
:10993000C11910310DA8102202E008980499069A66
:10994000FAF766FC00240DAA102320463146FFF7E3
:1099500001FD00280DD005980001089940180B99C9
:109960004018089007981038079010378F42ABD3F3
:10997000039C204611B0F0BD00FEFFFFB0B51F20D4
:10998000C00209490222FFF7F7FE7D204002074C82
:10999000032521462A46FFF7EFFE01F007FCA078D9
:1099A000042800D3A570B0BD04040010000400100A
:1099B00080B58000034B18587D235B02C018FFF769
:1099C000A5FC80BD98E1000010B50A494C68086804
:1099D000C00702D07D20000200E0074809680906A0
:1099E000090F491CFAF718FF07210C40611CFAF710
:1099F00013FF10BD00100040006CDC02B0B50B7905
:109A0000002B24D0052B22D0CB680C88E4001B1936
:109A10000024082C03D01D5D0555641CF9E7C88897
:109A2000401EC880000403D0002A05D0012004E0B5
:109A3000002A0DD000200CE00420087108880A8953
:109A4000521E824201D1002000E0401C0880B0BDBF
:109A500005200871B0BDB0B50C79CB68052C03D0DA
:109A6000032C22D0002C03D1002A09D0012208E0C7
:109A70000C894A88521CA24200D100224A8001E08F
:109A800004220A710022082A06D0845C4D88ED0069
:109A90005D19AC54521CF6E7C888401CC8800A897E
:109AA00080B2904201D303200871B0BDF0B582B0FE
:109AB00001900068A24A1168102300939943116035
:109AC0002C21455C032D01D0012100E0022100265C
:109AD000154C164F33466068BE4204D00F26304006
